:020000040800F2
:10000000008000209D700008396E00083B6E0008DB
:100010003D6E00083F6E0008416E000800000000C1
:10002000000000000000000000000000436E000817
:10003000456E000800000000476E0008496E000889
:10004000ED700008ED700008ED700008ED7000081C
:10005000ED700008ED700008ED700008ED7000080C
:10006000ED700008ED700008ED700008ED700008FC
:10007000ED700008ED700008516E0008ED7000088A
:10008000ED700008ED700008ED700008ED700008DC
:10009000ED700008ED700008ED700008ED700008CC
:1000A000ED700008ED700008ED700008ED700008BC
:1000B000ED700008ED700008ED700008ED700008AC
:1000C000ED700008ED700008ED700008ED7000089C
:1000D000ED700008ED700008ED700008ED7000088C
:1000E000ED700008ED700008ED700008ED7000087C
:1000F000ED700008ED700008ED700008ED7000086C
:10010000000000000000000000000000ED7000088A
:10011000ED700008ED700008ED700008ED7000084B
:10012000ED700008ED700008ED700008ED7000083B
:10013000ED700008ED7000080000000000000000F5
:10014000ED700008ED700008ED7000080000000080
:10015000000000000000000000000000000000009F
:100160000000000000000000ED700008ED700008C5
:10017000ED7000080000000000000000000000001A
:0801800000000000ED70000812
:1001C0000348044B834202D0034B03B118477047E6
:1001D0000001002000010020000000000548064941
:1001E0000B1AD90F01EBA301491002D0034B03B145
:1001F00018477047000100200001002000000000A7
:1002000010B5064C237843B9FFF7DAFF044B13B15E
:100210000448AFF300800123237010BD00010020CB
:1002200000000000F070000808B5044B1BB1044941
:100230000448AFF30080BDE80840CFE700000000AD
:1002400004010020F070000800B50B4C256814462E
:10025000EE681A4685B003460D464CB10749009535
:10026000CDE901143046064900F028F800F0FCFD05
:1002700004490C46F3E700BF00000020F8720008B4
:10028000087300088C72000808B513460022FFF7B7
:10029000DBFF00BF014B1868704700BF0000002063
:1002A0000CB400B583B004AB53F8042B019300F0F9
:1002B00005F903B05DF804EB02B070470EB410B559
:1002C00083B005AB064C53F8042B0193014620681C
:1002D00000F0F4F803B0BDE8104003B0704700BF71
:1002E0000000002070B50D4E0D4D761BB61006D0E7
:1002F000002455F8043B01349847A642F9D1094E31
:10030000094D761B06F0F4FEB61006D0002455F811
:10031000043B01349847A642F9D170BD74730008BC
:10032000747300087873000874730008032A70B5AA
:1003300015D940EA010C1CF0030F04460B4621D1ED
:10034000194620460E680568B54204F1040403F11D
:10035000040317D1043A032A20461946F0D8541E44
:10036000A2B100F1FF3C013901E0C3180CD01CF828
:1003700001EF11F8012F9645A4EB0C03F5D0AEEB7D
:10038000020070BD541EECE7184670BD104670BDEB
:10039000830730B548D0541E002A3FD0CAB2034666
:1003A00001E0013C3AD303F8012B9D07F9D1032C5E
:1003B0002DD9CDB245EA05250F2C45EA054536D99C
:1003C000A4F1100222F00F0C03F1200EE6444FEAD4
:1003D000121C03F1100242E9045542E902551032A1
:1003E0007245F8D10CF1010214F00C0F03EB02126C
:1003F00004F00F0C13D0ACF1040323F00303043317
:10040000134442F8045B9342FBD10CF003042CB17B
:10041000CAB21C4403F8012B9C42FBD130BD644698
:100420001346002CF4D1F9E703461446BFE71A46F9
:10043000A446E0E79368013B002B936011DA10B407
:100440009469A34209DB0A2907D01368581C10607D
:10045000197008465DF8044B70475DF8044B00F0D6
:100460001DBC1368581C106019700846704700BF07
:100470009BB1F8B5134406460F46541E5D1E01E0BD
:10048000AC4208D014F8011F3A463046FFF7D2FFBD
:10049000431CF5D1F8BD0020F8BD0020704700BF17
:1004A000936810B5144613B95360184610BD00F098
:1004B000F3FE0023C4E9013310BD00BF2DE9F04F66
:1004C00088469FB015461C46814618B18369002BAB
:1004D00000F0A280924B984500F0A480914B984583
:1004E00000F0B180904B984508BFD9F80C80B8F85F
:1004F0000C30180740F19D80D8F81030002B00F028
:10050000988000230B932978884E059420238DF83A
:10051000313030238DF832300127002974D02C4639
:100520000B4604E014F8013F002B00F08F80252BD0
:10053000F8D1B4EB050B40F08C802378002B63D00E
:1005400000234FF0FF32CDE90723069309938DF87E
:100550005B301C93013404E0069A07FA03F313435B
:1005600006932546052214F8011B304601F0E0F8F9
:10057000831B0028F0D1069BD90644BF20228DF8AA
:100580005B2029781A0744BF2B228DF85B202A298B
:1005900070D1059A1168043200290592C0F29B803F
:1005A0000991697801352E2976D0614C03222046C5
:1005B00001F0BEF838B1069B001B402404FA00F09D
:1005C00003430693013515F8011B5A488DF8301086
:1005D000062201F0ADF8002800F08380564B002B76
:1005E0006DD005AA0092554B424606A94846AFF386
:1005F00000800390039B013306D00B9B039A29785C
:1006000013440B9300298AD1B8F80C305B0617D439
:100610000B981FB0BDE8F08F00F01EFE404B9845D0
:100620007FF45CAFD9F80480B8F80C3018073FF5B8
:1006300063AF4146484600F095FB00283FF461AFA8
:100640004FF0FF30E5E7D9F8088050E7B4EB050B31
:10065000DAD0AA46C5F1010503E0934536D91AF868
:10066000011F42464846FFF7E5FE013005EB0A024E
:10067000F3D1C9E7A1F13002092A94D8099B15F8F2
:10068000011F03EB830302EB4303A1F13002092AAC
:10069000F5D92E29099388D169782A292BD1059B70
:1006A000A9781A6807920433002A05F1020005931D
:1006B000B8BF4FF0FF330546B8BF079375E7059BFA
:1006C000073323F007030833059396E70B9A237843
:1006D0005A440B9232E7494243F0020309910693D0
:1006E0005FE705AA0092154B424606A9484600F06E
:1006F000CBF803907EE7A1F130020023092A07938B
:1007000005F101053FF651AF15F8011F03EB830317
:1007100002EB4303A1F13002092AF5D9079344E71C
:100720004C7100082C7100080C7100083873000827
:1007300040730008447300080000000071040008C2
:1007400010B4054C8446134620685DF8044B0A46F5
:100750006146FFF7B3BE00BF000000202DE9F84F4F
:1007600092461F460A698B68DDF828909A42B8BF06
:100770001A46CAF8002091F843300C46064613B1D9
:100780000132CAF80020226891065DD5DAF80030FF
:100790000233CAF80030226812F0060F11461ED14B
:1007A000E168CB1A002BD8BF114618DD04F1190BF4
:1007B0004FF0000805E0E568DAF80030ED1A45452D
:1007C0000CDD01235A4639463046C847013008F14E
:1007D0000108F0D14FF0FF30BDE8F88F216894F8A0
:1007E0004330003B18BF01238A060AD5E1185A1C82
:1007F000302081F84300224494F8451082F84310D9
:10080000023304F1430239463046C8470130E1D093
:10081000236803F00603042B1DD0A36822699342CA
:1008200025DD4FF000089B1A98441A34002501E09A
:1008300045451CDA0123224639463046C847013077
:1008400005F10105F4D1C5E712F0060F12D0003B07
:1008500018BF0123D5E7DAF80030E1682269C91A28
:10086000A368934221EAE178DDDC0029DDDC002089
:10087000BDE8F88FE168DAF80030CB1A002BD8BF5A
:10088000114693DCABE700BF2DE9F0470C4684B07E
:100890009046227E0C990746994604F14300002AAF
:1008A00033D0A2F15803DDB2202D67D8202B65D8B4
:1008B000DFE813F0DE00640064006400640064009C
:1008C00064006400640064006400A3006E006400BF
:1008D0006400640064006E006400640064006400EE
:1008E00021007F00C00064006400AE0064007F004F
:1008F00064006400E50023681A0640F104810B6877
:1009000062691D1D0D601B681A6000238246236109
:10091000CDF80090434603AA21463846FFF71EFF54
:10092000013020D02369524641463846C84701303D
:1009300019D02368E068039E9B0719D5831B002B01
:1009400016DD04F1190A002504E0E068039E831B0C
:10095000AB420DDD0123524641463846C8470130BF
:1009600005F10105F1D14FF0FF3004B0BDE8F0878B
:10097000B042B8BF304604B0BDE8F087012384F828
:100980004220236104F1420A002384F84330BFE788
:1009900023681A0602D45E0600F1C1800D682A6839
:1009A00004350D601546002A6BDBDFF884C10A268A
:1009B00010E023681D0640F19C800B681D1D0D6032
:1009C0001D68DFF86CC16F2A0CBF08260A260023B9
:1009D00084F843306268A260002A7FDB236823F03A
:1009E00004032360002D5BD1002A79D18246082EB2
:1009F00065D0A0EB0A0020618AE70B680122186825
:100A000004330B6004F1420A84F842002261BBE720
:100A10000B686268181D0860D3F800A000215046DA
:100A200000F086FE002800F08180A0EB0A006060E4
:100A30002061A9E7236843F0200323607822DFF8D0
:100A4000F4C084F845200A68151D0D601D0643D4C6
:100A5000590641D51588DE0744BF43F020032360C3
:100A6000002D44D1236823F0200323601026AEE735
:100A7000582384F84530DFF8B8C02368E3E72368DB
:100A8000DCE76268A2602D21002AC5F1000584F828
:100A9000431002DB23F004032360DFF894C00A262E
:100AA0008246B5FBF6F306FB13512A461CF80110EB
:100AB0000AF8011DB2421D46F3D2082E99D12368CF
:100AC000D90796D5626823699A4292DC30230AF8E6
:100AD000013C0AF1FF3A8CE71568BCE7002DDFD135
:100AE0009CF8003084F8423004F1420A7FE7102677
:100AF0006DE713F0400F0B6803F104050D600CBFA8
:100B00001D681D885DE713F0400F0B68626903F1F3
:100B100004050D601B6814BF1A801A60F5E60A68A8
:100B2000B2F9005004320A602A463CE760687FE769
:100B30004C730008607300080CB410B59CB01EAB79
:100B40006FF00044CDE906140291084953F8042BD4
:100B5000059102A90193049401F012F9029B00226D
:100B60001A701CB0BDE8104002B070470802FFFFC9
:100B70000EB410B59DB06FF000411FABCDE906017A
:100B80000491094953F8042B0290084C086801931A
:100B900002A9059401F0F4F8029B00221A701DB01E
:100BA000BDE8104003B07047000000200802FFFFBE
:100BB0000000000000000000000000000000000035
:100BC00090F800F06DE9024520F007016FF0000C8D
:100BD00010F0070491F820F040F049804FF0000435
:100BE0006FF00700D1E9002391F840F000F1080010
:100BF00082FA4CF2A4FA8CF283FA4CF3A2FA8CF348
:100C00004BBBD1E9022382FA4CF200F10800A4FAAE
:100C10008CF283FA4CF3A2FA8CF3E3B9D1E9042302
:100C200082FA4CF200F10800A4FA8CF283FA4CF339
:100C3000A2FA8CF37BB9D1E9062301F1200182FAF3
:100C40004CF200F10800A4FA8CF283FA4CF3A2FAF9
:100C50008CF3002BC6D0002A04BF04301A4612BA07
:100C6000B2FA82F2FDE8024500EBD2007047D1E90A
:100C7000002304F00305C4F100004FEAC50514F099
:100C8000040F91F840F00CFA05F562EA05021CBF6A
:100C900063EA050362464FF00004A9E7F8B50D4684
:100CA0001446064608B1836943B3254B9C422AD0BB
:100CB000244B9C4229D0244B9C4208BFF468A38952
:100CC000A269A2601A0722D5236903B32268616969
:100CD000D31AEDB299422F4629DD0133A1680139BB
:100CE000A160511C2160157062699A4216D0A389D7
:100CF000DB0701D50A2D11D03846F8BD00F0ACFA5B
:100D00000F4B9C42D4D17468D9E7B468D7E7214629
:100D1000304600F027F838B92369D7E72146304636
:100D200000F034F90028E7D04FF0FF37E4E7214620
:100D3000304600F02BF90028F6D122680123CDE7D8
:100D40004C7100082C7100080C71000810B4044CA0
:100D500003460A4620685DF8044B1946FFF79EBF1C
:100D6000000000203C4B70B51D6806460C460DB1D6
:100D7000AB69E3B1394B9C421FD0394B9C424DD0FB
:100D8000384B9C4208BFEC68B4F90C3018079AB293
:100D900019D5216911B312F001002FD00020A060F5
:100DA00060694042A06100292ED0002070BD284615
:100DB00000F052FA294B9C42DFD16C68B4F90C3038
:100DC00018079AB2E5D4D1063ED5520728D4216936
:100DD00043F00803A3819AB20029DCD102F4207009
:100DE000B0F5007FD7D02146304600F011FCB4F9B1
:100DF0000C3021699AB212F00100CFD1950758BF8B
:100E00006069A0600029D0D1120658BF0846CDD530
:100E100043F04003A3814FF0FF3070BDAC68B3E7EF
:100E2000616B51B104F14402914204D0304600F0AC
:100E3000E5FDB4F90C300022626321690022C4E9A7
:100E4000001223F02403C3E7092243F04003326079
:100E50004FF0FF30A38170BD000000204C710008EE
:100E60002C7100080C71000808B5062001F048F943
:100E7000012005F0FFFF00BF8B891A072DE9F04123
:100E80000C4680463FD44A68002A58DDE66A002EA8
:100E900052D00022D8F80050C8F8002013F4805235
:100EA00051D10123216A4046B047431C5ED0A3893B
:100EB000E66A5F0705D56368C01A636B0BB1236CE4
:100EC000C01A216A024600234046B047411C3CD16B
:100ED000D8F80030002B38D01D2B01D0162B4DD167
:100EE00023690022C4E90032616BC8F8005019B3CD
:100EF00004F14403994202D0404600F07FFD0020F7
:100F00006063BDE8F0810E69B6B10D680E609A07A6
:100F10000CBF4B690023AD1B8B600BE02B463246A8
:100F2000216AA76A4046B847B0F1000CA5EB0C0552
:100F3000664413DD002DF1DC0020BDE8F0810A6C71
:100F4000002AA3DCF8E7606DB3E700236360236940
:100F50002360A389DB04C7D56065C5E7A38943F097
:100F600040034FF0FF30A381BDE8F081D8F8003096
:100F7000002B9CD01D2B06D0162B04D0A38943F048
:100F80004003A381D9E7C8F80050D5E738B50B690D
:100F9000BBB10D46044608B18369B3B10D4B9D4208
:100FA00011D00D4B9D4213D00C4B9D4208BFE568FC
:100FB000B5F90C302BB129462046BDE83840FFF783
:100FC0005BBF002038BD6568F2E700F045F9E5E752
:100FD000A568EDE74C7100082C7100080C71000841
:100FE00038B540B303690446E3B1174B1D680DB132
:100FF000AB69CBB1154B9C420FD0154B9C4221D015
:10100000144B9C4208BFEC68B4F90C3053B1214634
:101010002846BDE83840FFF72FBF6C68B4F90C30A4
:10102000002BF4D1002038BD284600F015F9074BFD
:101030009C42E2D1F1E7084B08491868BDE8384006
:1010400000F0C2BAAC68DFE7000000204C71000875
:101050002C7100080C710008087100088D0F000841
:1010600000207047014900F0AFBA00BF8D0F0008A3
:101070000020704770B568224D1E02FB05F50E4634
:1010800005F1740100F01CFD044640B100210C3054
:10109000C4E90016A06005F16802FFF779F920465F
:1010A00070BD00BF274B2DE9F0411E68B3690746AC
:1010B00053B348364FF00408D6E90134013B04D558
:1010C0001EE05A1C04F168041AD0B4F90C50013B1C
:1010D000002DF6D11C4B6566C4E90055C4E90253E6
:1010E000C4E90455A5610822294604F15C00FFF714
:1010F0004FF9C4E90D55C4E912552046BDE8F08109
:1011000035682DB12E46D7E7304600F01FF8D0E7FE
:101110004FF4D671384600F0D3FC044668B1056040
:10112000C0F804800C302946A06025464FF4D072E8
:10113000FFF72EF934602E46BEE70C2330603B608B
:10114000DBE700BF087100080100FFFF2DE9F84F41
:10115000344B35491A68816290424FF00003C0E970
:101160001233036504BF012383610546FFF79AFF2D
:1011700068602846FFF796FFA8602846FFF792FFB1
:101180006F68E86000240423C7E90243082221466F
:10119000C7E90044C7E904447C66BC6107F15C0010
:1011A000FFF7F6F8DFF88CB0AE68DFF88CA0DFF858
:1011B0008C90DFF88C801D4BC7F828A0C7E9087B0E
:1011C000C7F82C90C7F830800822F360C6E90044C5
:1011D000C6E904447466B460B461214606F15C005B
:1011E000FFF7D6F8C6E9086BC6E90AA9C6F8308049
:1011F000EE680F4BF360C6E90044C6E90444746628
:10120000B460B4612146082206F15C00FFF7C0F823
:101210000123C6E9086BC6E90B98C6F828A0AB61A4
:10122000BDE8F88F0871000865100008090001008A
:10123000120002007122000899220008D922000839
:10124000F9220008024B0349186800F0BDB900BF3D
:10125000087100088D0F0008836903B976E77047AD
:10126000704700BF704700BF704700BF704700BFA6
:10127000024B0349186800F087B900BF0000002046
:1012800061100008024B0349186800F07DB900BFE7
:1012900000000020711000089368002B00F085808A
:1012A0002DE9F04FB1F90C300C461907804683B098
:1012B000174698B225D523691BB310F002033D6889
:1012C0002DD04FF0000ADFF8BCB25646B9465E4555
:1012D0003346524628BF5B464046002E52D0216A14
:1012E000A76AB847002856DDD9F808301B1A82448F
:1012F000361AC9F80830002BE9D1002003B0BDE848
:10130000F08F21464046FFF72DFD002840F0368142
:10131000B4F90C303D6898B210F00203D1D110F04E
:10132000010944D14E46009746B38205D4F808B06F
:1013300040F18380B3455A4600F2B28010F4906FBA
:1013400040F0BF8020680192494600F0DBFAA368B4
:10135000019AA3EB0B012368A1601344B2462360FA
:101360000026009B9868A0EB0A00D14498600028F2
:10137000C3D0B4F90C0080B2002ED6D1D5E90096C6
:101380000835D1E7D5E900A60835A0E72146404653
:10139000FFF7FCFD80B3B4F90C3043F040034FF08D
:1013A000FF30A38103B0BDE8F08F002070471E46D8
:1013B000AA46994618461D46009756B388B34A4632
:1013C000D4E904132068B24228BF3246884205D9C6
:1013D000A16803EB010B5A4500F3A680934263DC3E
:1013E000216AA76A2A464046B847B0F1000BD2DD11
:1013F000B9EB0B09CAD00120009A9368A3EB0B0349
:101400005D44A6EB0B069360002B3FF476AF002EF5
:10141000D4D10AF1080353E902569A460833002E44
:10142000F9D032460A21284600F082F9002800F05F
:101430009C800130A0EB0509C1E720682369984230
:1014400016D86369B34213D86FF00042B24228BF86
:101450003246216A92FBF3F2A76A02FB03F340468D
:101460004A46B847B0F1000A95DDA6EB0A0678E7D0
:10147000B345DA4628BFB2465246494600F042FA22
:10148000A3682268A3EB0A035244A3602260002BE6
:10149000EBD121464046FFF779FD0028E5D07AE7F9
:1014A0002068B34632464EE72946019200F02AFAF8
:1014B000019AA3689B1AA360236813442360934690
:1014C00096E723682169A3EB010B636903EB430AE9
:1014D0000AEBDA7A0BF101034FEA6A0A3344534507
:1014E000524684BF9A46524643052CD51146404683
:1014F00000F0E6FA00283BD05A462169019000F03E
:1015000067F9A289019B22F4906242F08002A281D5
:1015100003EB0B002361AAEB0B03C4F814A0A36038
:101520002060B34632460EE729465A4600F0EAF9F3
:1015300023685B44236021464046FFF727FD0028CF
:101540003FF456AF27E7404600F014FB034600285F
:10155000DED12169404600F051FAB4F90C300C227A
:1015600023F08003C8F8002017E7721C914627E794
:101570000C22B4F90C30C8F800200EE74FF0FF3011
:10158000BCE600BF00FCFF7F2DE9F041884600F17A
:1015900048070026D7E90154013D0FD4A389012B48
:1015A00005F1FF3506D9B4F90E300133204601D0DC
:1015B000C04706436B1C04F16804EFD13F68002F5D
:1015C000E8D13046BDE8F0812DE9F843074688466A
:1015D00000F148064FF00009D6E90154013D11D44D
:1015E000A389012B05F1FF3508D9B4F90E30013379
:1015F000214603D03846C04749EA00096B1C04F174
:101600006804EDD13668002EE6D14846BDE8F8837F
:10161000F0B58B890C46990797B007D504F14703BD
:101620000122C4E90432236017B0F0BDB4F90E10F2
:10163000002905462DDB6A4600F08AFE002827DBDC
:10164000019E06F470464FF48067A6F50056B6FA80
:1016500086F639462846760900F032FA30B3A38977
:101660001A4AAA6243F08003C4E90407A3812060F8
:10167000002ED9D0B4F90E10284600F07FFE0028C5
:10168000D2D0A38923F0030343F00103A381CBE766
:10169000A38913F0800F14BF40274FF480673946A9
:1016A0002846002600F00CFA0028D8D1B4F90C30F6
:1016B0009A05B9D423F0030304F1470243F002036F
:1016C0000121C4E90421A3812260ADE7651000086F
:1016D00070B50C46B1F90E10002996B016461D469D
:1016E00013DB6A4600F034FE00280EDB019901F49A
:1016F0007041A1F50051B1FA81F14FF480634909BD
:1017000000202960336016B070BDB4F90C3000229F
:101710001B062A6004D540230020336016B070BD3C
:101720004FF480630020336016B070BD00000000ED
:1017300001F0FF01102A2BDB10F0070F08D010F882
:10174000013B013A8B422DD010F0070F42B3F6D186
:10175000F0B441EA012141EA014122F007047FF09F
:1017600000070023F0E80256083C85EA010586EAF6
:10177000010685FA47F5A3FA87F586FA47F6A5FA32
:1017800087F68EB9EED1F0BC01F0FF0102F007023E
:1017900032B110F8013B013A83EA010313B1F8D1E9
:1017A0000020704701387047002D06BF35460338CA
:1017B000073815F0010F07D1013015F4807F02BF03
:1017C000013015F4C03F0130F0BC0138704700BF54
:1017D000844641EA000313F003036DD1403A41D33C
:1017E00051F8043B40F8043B51F8043B40F8043BFB
:1017F00051F8043B40F8043B51F8043B40F8043BEB
:1018000051F8043B40F8043B51F8043B40F8043BDA
:1018100051F8043B40F8043B51F8043B40F8043BCA
:1018200051F8043B40F8043B51F8043B40F8043BBA
:1018300051F8043B40F8043B51F8043B40F8043BAA
:1018400051F8043B40F8043B51F8043B40F8043B9A
:1018500051F8043B40F8043B51F8043B40F8043B8A
:10186000403ABDD2303211D351F8043B40F8043B2A
:1018700051F8043B40F8043B51F8043B40F8043B6A
:1018800051F8043B40F8043B103AEDD20C3205D33A
:1018900051F8043B40F8043B043AF9D2043208D032
:1018A000D2071CBF11F8013B00F8013B01D30B88A4
:1018B00003806046704700BF082A13D38B078DD082
:1018C00010F003038AD0C3F10403D21ADB071CBF54
:1018D00011F8013B00F8013B80D331F8023B20F8BE
:1018E000023B7BE7043AD9D3013A11F8013B00F8F7
:1018F000013BF9D20B7803704B7843708B7883707F
:101900006046704788420DD98B1883420AD900EB94
:10191000020CBAB1624613F801CD02F801CD99422A
:10192000F9D170470F2A0ED8034602F1FF3C4AB1A5
:101930000CF1010C013B8C4411F8012B03F8012F31
:101940006145F9D1704740EA01039B0750D1A2F1EC
:10195000100370B501F1200C23F00F0501F1100EFA
:1019600000F11004AC441B095EF8105C44F8105CF4
:101970005EF80C5C44F80C5C5EF8085C44F8085CAB
:101980005EF8045C44F8045C0EF1100EE64504F1C8
:101990001004E9D1013312F00C0F01EB031102F036
:1019A0000F0400EB031327D0043C24F003064FEA96
:1019B000940C1E441C1F8E465EF8045B44F8045FC2
:1019C000B442F9D10CF1010402F0030203EB8403E9
:1019D00001EB840102F1FF3C4AB10CF1010C013B27
:1019E0008C4411F8012B03F8012F6145F9D170BD2A
:1019F00002F1FF3C03469BE72246EBE7002958D063
:101A000030B551F8043C83B0002BA1F10404B8BFF9
:101A1000E418019000F0DAFC284A0198136833B109
:101A2000A3420DD9216804EB010C63452FD06360FC
:101A3000146003B0BDE8304000F0CABCA34210D827
:101A40001A465B68002BF9D1116802EB010C644562
:101A500019D02FD36360546003B0BDE8304000F06C
:101A6000B7BC116802EB010CA44516D022D821683E
:101A700004EB010C6345EDD11D685B682944C4E9A2
:101A800000135460D5E7236819441160D1E71D683D
:101A90005B682944C4E90013CAE724682144541848
:101AA000A3421160C5D1D3E900432144C2E9001328
:101AB000BFE770470C230360BBE700BF1C01002099
:101AC000F8B5CD1C25F0030508350C2D38BF0C25C5
:101AD000002D064623DBA94221D8254F00F076FCD5
:101AE0003A6822B3144603E063682246FBB11C4601
:101AF00023685B1BF8D40B2B15D8636894420CBF8A
:101B00003B605360304600F063FC04F10B00231D82
:101B100020F00700C21A01D01B1AA350F8BD0C23F5
:101B200033600020F8BD23601C442560EAE7796833
:101B3000C9B12946304600F03DFA431C0CD0C41C04
:101B400024F00304A04205D0211A304600F032FAF6
:101B5000013001D02560D5E70C233046336000F01A
:101B600037FC0020F8BD304600F024FA7860E0E74A
:101B70001C010020F8B51446F9B1CAB106460D465D
:101B800000F028FCA04202D32F463846F8BD21467B
:101B90003046FFF795FF07460028F6D02246294633
:101BA000FFF716FE30462946FFF728FF3846F8BDF6
:101BB0002746FFF723FF3846F8BDBDE8F840114639
:101BC000FFF77EBF2DE9F0478F689F420C461D4608
:101BD000164638D88246888910F4906F0ED108686E
:101BE0003D462A463146FFF78DFEA2682368D21B88
:101BF0002B44A26023600020BDE8F0874B6909698F
:101C000003EB4308236808EBD878A3EB01096B1CAE
:101C10004FEA68084B444345424684BF98464246D3
:101C2000430513D511465046FFF74AFF074608B350
:101C300021694A46FFF7CCFDA38923F4906343F062
:101C40008003A38107E008681F46CAE75046FFF7F4
:101C500091FF074650B107EB0900A8EB0903276184
:101C6000C4F81480A36020602F46BAE7216950466B
:101C7000FFF7C4FE0C23CAF80030A38943F04003E9
:101C80004FF0FF30A381B7E72DE9F04F936883B0A1
:101C90009146002B6ED017688D6880460C46086808
:101CA000083744E0A38913F4906F2ED0D4E90415CB
:101CB000A0EB010A05EB450505EBD5750AEB06001F
:101CC0006D100130A8422A4684BF05462A465B05AE
:101CD00037D511464046FFF7F3FE00283BD0524669
:101CE00021690190FFF774FDA289019B22F49062A3
:101CF00042F08002A281A5EB0A0203EB0A006561B3
:101D0000A260236120603546B24659465246FFF72D
:101D1000F9FDA068D9F808102368451B8E1B03EB5A
:101D20000A00A5602060C9F808601EB3083757E9AB
:101D300002B6002EFAD0B542AA46B3D93546B2460D
:101D4000E3E74046FFF716FF03460028D3D1216999
:101D50004046FFF753FE0C23C8F80030A389002249
:101D600043F040034FF0FF30A381C9E9012203B0E3
:101D7000BDE8F08F0020C9F8040003B0BDE8F08F83
:101D80002DE9F04F92468A8915069DB08846814616
:101D90001C4603D50A69002A00F0EF800022099250
:101DA0009AF800307E4D039420228DF829203022AD
:101DB0008DF82A200126002B72D0544603E014F837
:101DC000013F002B76D0252BF9D1B4EB0A0B74D14F
:101DD0002278002A64D000234FF0FF32CDE905239A
:101DE000049307938DF853301A93013404E0049A56
:101DF00006FA03F313430493A246052214F8011BC9
:101E00002846FFF795FC431B0028F0D1049BD80619
:101E100044BF20228DF8532019079AF8001044BFC0
:101E20002B228DF853202A2954D1039A11680432A9
:101E3000002903927CDB07919AF801100AF1010A4C
:101E40002E2959D0574C03222046FFF771FC40B190
:101E5000049B001B402404FA00F0034304930AF19E
:101E6000010A1AF8011B50488DF828100622FFF7C6
:101E70005FFC002862D04D4B002B52D003AA009289
:101E80004B4B424604A94846AFF3008007467A1CF4
:101E900006D0099B3B4409939AF80030002B8CD163
:101EA000B8F80C305B0654BF09984FF0FF301DB0F6
:101EB000BDE8F08FB4EB0A0BF2D05B4652464146C8
:101EC0004846FFF77FFE0130EAD0099B22785B4449
:101ED00009937EE7A1F13002092AB1D8079B1AF8CD
:101EE000011F03EB830302EB4303A1F13002092A34
:101EF000F5D92E290793A5D19AF801102A2927D1BF
:101F0000039B9AF802101A6805920433002A0AF11A
:101F100002000393B8BF4FF0FF338246B8BF05936A
:101F200090E7039B073323F0070308330393B0E7DD
:101F3000494243F00203079104937DE703AA00920C
:101F40001B4B424604A94846FEF79EFC07469EE707
:101F5000A1F130020023092A05930AF1010A3FF694
:101F600071AF1AF8011F03EB830302EB4303A1F1E6
:101F70003002092AF5D9059364E74021FFF7A0FD57
:101F8000C8F80000C8F8100018B14022C8F81420A2
:101F900004E70C23C9F800304FF0FF3087E700BF9B
:101FA0003873000840730008447300080000000004
:101FB000C51B000838B5074D0022044608462A60B4
:101FC00004F088FF431C00D038BD2B68002BFBD0E9
:101FD000236038BD2401002038B5446C0CB10020CA
:101FE00038BD80210546FFF76BFD0246686430B1BD
:101FF000031F7C3243F8044F9342FBD1EFE74FF0CD
:10200000FF3038BD1F29F8B5054608D8466C0C4688
:1020100017464EB156F8240046F82470F8BD162332
:1020200003604FF0FF30F8BD8021FFF749FD064601
:10203000686440B1031F00F17C05002143F8041FD0
:102040009D42FBD1E6E74FF0FF30F8BD1F2938B5C0
:10205000054620D8426C0C466AB152F8213053B183
:10206000012B16D0591C10D00025204642F82450D0
:102070009847284638BD284600F0F8F82246014621
:102080002846BDE8384000F0DBB816230360012085
:1020900038BD002038BD162303604FF0FF3038BD37
:1020A0001F292AD8426C38B50C46054682B152F831
:1020B000243002EB84024BB1591C19D0012B15D0EE
:1020C0000025204615609847284638BD012038BDB8
:1020D0008021FFF7F5FC0246686458B1031F002118
:1020E0007C3043F8041F9842FBD1E0E7032038BD61
:1020F000022038BD4FF0FF3038BD4FF0FF30704741
:1021000038B5144B1F281D681FD86A6C044662B18D
:1021100052F820304BB1012B15D0591C0FD000259F
:1021200042F820509847284638BD284600F09EF8CF
:10213000224601462846BDE8384000F081B8162303
:102140002B60012038BD002038BD16232B604FF0D6
:10215000FF3038BD00000020124B1F2870B51E68EC
:1021600008D80D46716C044649B151F8240041F875
:10217000245070BD162333604FF0FF3070BD8021B6
:102180003046FFF79DFC0146706440B1031F00F12B
:102190007C0C002243F8042F6345FBD1E5E74FF0A8
:1021A000FF3070BD0000002038B50B4B1D686C6C13
:1021B0000CB1002038BD80212846FFF781FC6864FF
:1021C00038B1031F00F17C0243F8044F9342FBD166
:1021D000EFE74FF0FF3038BD0000002038B5174B57
:1021E0001F281D6826D86A6C044682B152F8243034
:1021F00002EB84024BB1591C1AD0012B16D00025DA
:10220000204615609847284638BD012038BD8021FA
:102210002846FFF755FC0246686458B1031F0021A9
:102220007C3043F8041F8342FBD1DFE7032038BD35
:10223000022038BD4FF0FF3038BD00BF0000002045
:1022400070B50C46084D03460026204611461C4634
:102250002E6004F007FE431C00D070BD2B68002BDD
:10226000FBD0236070BD00BF2401002004F0F8BD46
:1022700010B50C46B1F90E1000F0B6F8002803DBDB
:10228000636D0344636510BDA38923F48053A38168
:1022900010BD00BF002070472DE9F0410C46B1F998
:1022A0000C101F46CB05054616460BD421F4805171
:1022B000A1813B46B4F90E1032462846BDE8F041F4
:1022C00000F01EB8B4F90E100223002200F068F8E6
:1022D000B4F90C10EAE700BF10B50C46B1F90E10C6
:1022E00000F05EF8A389421C0EBF23F4805343F430
:1022F00080536065A38110BDB1F90E1000F016B8CF
:1023000038B50C46084D8446114620461A4600232F
:102310002B60644604F0C4FD431C00D038BD2B681C
:10232000002BFBD0236038BD2401002038B5074DB9
:102330000022044608462A6004F0C0FD431C00D079
:1023400038BD2B68002BFBD0236038BD2401002052
:1023500070B50C46084D03460026204611461C4623
:102360002E6004F0AEFD431C00D070BD2B68002B26
:10237000FBD0236070BD00BF2401002038B5074D9D
:102380000022044608462A6004F0A0FD431C00D049
:1023900038BD2B68002BFBD0236038BD2401002002
:1023A00038B50C46084D8446114620461A4600238F
:1023B0002B60644604F08CFD431C00D038BD2B68B4
:1023C000002BFBD0236038BD24010020704700BFE4
:1023D000704700BF51F8040C0028A0F10400BCBFF6
:1023E0000B58C018704700BF38B50C46084D8446DE
:1023F000114620461A4600232B60644604F040FD37
:10240000431C00D038BD2B68002BFBD0236038BDA7
:102410002401002081F0004102E000BF83F000436E
:1024200030B54FEA41044FEA430594EA050F08BF6F
:1024300090EA020F1FBF54EA000C55EA020C7FEA33
:10244000645C7FEA655C00F0E2804FEA5454D4EBB0
:102450005555B8BF6D420CDD2C4480EA020281EA7A
:10246000030382EA000083EA010180EA020281EAB2
:102470000303362D88BF30BD11F0004F4FEA013104
:102480004FF4801C4CEA113102D0404261EB410113
:1024900013F0004F4FEA03334CEA133302D0524299
:1024A00063EB430394EA050F00F0A780A4F1010455
:1024B000D5F1200E0DDB02FA0EFC22FA05F280188F
:1024C00041F1000103FA0EF2801843FA05F3594175
:1024D0000EE0A5F120050EF1200E012A03FA0EFCF4
:1024E00028BF4CF0020C43FA05F3C01851EBE3711E
:1024F00001F0004507D54FF0000EDCF1000C7EEB3B
:1025000000006EEB0101B1F5801F1BD3B1F5001F78
:102510000CD349085FEA30004FEA3C0C04F1010497
:102520004FEA445212F5800F80F09A80BCF1004FC0
:1025300008BF5FEA500C50F1000041EB045141EA42
:10254000050130BD5FEA4C0C404141EB0101013C0B
:1025500028BFB1F5801FE9D291F0000F04BF0146FA
:102560000020B1FA81F308BF2033A3F10B03B3F1CC
:1025700020020CDA0C3208DD02F1140CC2F10C025C
:1025800001FA0CF021FA02F10CE002F11402D8BFBA
:10259000C2F1200C01FA02F120FA0CFCDCBF41EA86
:1025A0000C019040E41AA2BF01EB0451294330BD55
:1025B0006FEA04041F3C1CDA0C340EDC04F1140432
:1025C000C4F1200220FA04F001FA02F340EA030009
:1025D00021FA04F345EA030130BDC4F10C04C4F14F
:1025E000200220FA02F001FA04F340EA030029462F
:1025F00030BD21FA04F0294630BD94F0000F83F479
:10260000801306BF81F480110134013D4EE77FEA5B
:10261000645C18BF7FEA655C29D094EA050F08BFA7
:1026200090EA020F05D054EA000C04BF1946104688
:1026300030BD91EA030F1EBF0021002030BD5FEACC
:10264000545C05D14000494128BF41F0004130BDF4
:1026500014F580043CBF01F5801130BD01F0004548
:1026600045F0FE4141F470014FF0000030BD7FEABB
:10267000645C1ABF194610467FEA655C1CBF0B46B6
:10268000024650EA013406BF52EA033591EA030FCD
:1026900041F4002130BD00BF90F0000F04BF0021C5
:1026A000704730B54FF4806404F132044FF00005F8
:1026B0004FF0000150E700BF90F0000F04BF002171
:1026C000704730B54FF4806404F1320410F00045D7
:1026D00048BF40424FF000013EE700BF42004FEAD2
:1026E000E2014FEA31014FEA02701FBF12F07F434F
:1026F00093F07F4F81F06051704732F07F4208BF06
:10270000704793F07F4F04BF41F40021704730B50C
:102710004FF4607401F0004521F000411CE700BF58
:1027200050EA010208BF704730B54FF000050AE0DB
:1027300050EA010208BF704730B511F0004502D5DC
:10274000404261EB41014FF4806404F132045FEADE
:10275000915C3FF4D8AE4FF003025FEADC0C18BF87
:1027600003325FEADC0C18BF033202EBDC02C2F179
:10277000200300FA03FC20FA02F001FA03FE40EA0B
:102780000E0021FA02F11444BDE600BF70B54FF00F
:10279000FF0C4CF4E06C1CEA11541DBF1CEA1355ED
:1027A00094EA0C0F95EA0C0F00F0DEF82C4481EA55
:1027B000030621EA4C5123EA4C5350EA013518BF75
:1027C00052EA033541F4801143F4801338D0A0FB62
:1027D00002CE4FF00005E1FB02E506F00042E0FB0F
:1027E00003E54FF00006E1FB03569CF0000F18BF15
:1027F0004EF0010EA4F1FF04B6F5007F64F54074BD
:1028000004D25FEA4E0E6D4146EB060642EAC6214F
:1028100041EA55514FEAC52040EA5E504FEACE2EBC
:10282000B4F1FD0C88BFBCF5E06F1ED8BEF1004FBF
:1028300008BF5FEA500E50F1000041EB045170BD3B
:1028400006F0004646EA010140EA020081EA03017F
:10285000B4EB5C04C2BFD4EB0C0541EA045170BD7B
:1028600041F480114FF0000E013C00F3AB8014F1F5
:10287000360FDEBF002001F0004170BDC4F100043E
:10288000203C35DA0C341BDC04F11404C4F12005BF
:1028900000FA05F320FA04F001FA05F240EA02001A
:1028A00001F0004221F0004110EBD37021FA04F650
:1028B00042EB06015EEA430E08BF20EAD37070BD0A
:1028C000C4F10C04C4F1200500FA04F320FA05F069
:1028D00001FA04F240EA020001F0004110EBD3706B
:1028E00041F100015EEA430E08BF20EAD37070BDDB
:1028F000C4F1200500FA05F24EEA020E20FA04F3B4
:1029000001FA05F243EA020321FA04F001F0004162
:1029100021FA04F220EA020000EBD3705EEA430ED3
:1029200008BF20EAD37070BD94F0000F0FD101F002
:102930000046400041EB010111F4801F08BF013C3B
:10294000F7D041EA060195F0000F18BF704703F079
:102950000046520043EB030313F4801F08BF013D00
:10296000F7D043EA0603704794EA0C0F0CEA1355BC
:1029700018BF95EA0C0F0CD050EA410618BF52EA76
:102980004306D1D181EA030101F000414FF000007C
:1029900070BD50EA410606BF1046194652EA43068A
:1029A00019D094EA0C0F02D150EA013613D195EAFE
:1029B0000C0F05D152EA03361CBF104619460AD146
:1029C00081EA030101F0004141F0FE4141F4700150
:1029D0004FF0000070BD41F0FE4141F4780170BD40
:1029E00070B54FF0FF0C4CF4E06C1CEA11541DBFA5
:1029F0001CEA135594EA0C0F95EA0C0F00F0A7F8A7
:102A0000A4EB050481EA030E52EA03354FEA0131D3
:102A100000F088804FEA03334FF0805545EA1313E6
:102A200043EA12634FEA022245EA111545EA1065AE
:102A30004FEA00260EF000419D4208BF964244F145
:102A4000FD0404F5407402D25B084FEA3202B61A64
:102A500065EB03055B084FEA32024FF480104FF438
:102A6000002CB6EB020E75EB030E22BFB61A7546AC
:102A700040EA0C005B084FEA3202B6EB020E75EB3F
:102A8000030E22BFB61A754640EA5C005B084FEAA7
:102A90003202B6EB020E75EB030E22BFB61A754674
:102AA00040EA9C005B084FEA3202B6EB020E75EB7F
:102AB000030E22BFB61A754640EADC0055EA060E40
:102AC00018D04FEA051545EA16754FEA06164FEA83
:102AD000C30343EA52734FEAC2025FEA1C1CC0D12F
:102AE00011F4801F0BD141EA00014FF000004FF0BC
:102AF000004CB6E711F4801F04BF01430020B4F17D
:102B0000FD0C88BFBCF5E06F3FF6AFAEB5EB030C34
:102B100004BFB6EB020C5FEA500C50F1000041EB31
:102B2000045170BD0EF0004E4EEA113114EB5C04FE
:102B3000C2BFD4EB0C0541EA045170BD41F48011D1
:102B40004FF0000E013C90E645EA060E8DE60CEAD9
:102B5000135594EA0C0F08BF95EA0C0F3FF43BAFF6
:102B600094EA0C0F0AD150EA01347FF434AF95EAAD
:102B70000C0F7FF425AF104619462CE795EA0C0F91
:102B800006D152EA03353FF4FDAE1046194622E75E
:102B900050EA410618BF52EA43067FF4C5AE50EA38
:102BA00041047FF40DAF52EA43057FF4EBAE12E728
:102BB00038B50022002304460D4600F08FF828B9EE
:102BC00020462946BDE8384000F00AB8204605F105
:102BD000004100F005F8404261EB410138BD00BF03
:102BE000D0B50C4B002206460F46FFF7CFFD00F094
:102BF0009DF80446FFF750FD074B0022FFF7C6FD86
:102C000002460B4630463946FFF708FC00F08EF8C6
:102C10002146D0BD0000F03D0000F0414FF0FF3CE8
:102C200006E000BF4FF0010C02E000BF4FF0010CC6
:102C30004DF804CD4FEA410C7FEA6C5C4FEA430C3F
:102C400018BF7FEA6C5C1BD001B050EA410C0CBF8E
:102C500052EA430C91EA030F02BF90EA020F0020F0
:102C6000704710F1000F91EA030F58BF994208BF57
:102C700090422CBFD8176FEAE37040F00100704714
:102C80004FEA410C7FEA6C5C02D150EA013C07D16B
:102C90004FEA430C7FEA6C5CD6D152EA033CD3D0B6
:102CA0005DF8040B704700BF8446104662468C46B0
:102CB0001946634600E000BF01B5FFF7B7FF0028E3
:102CC00048BF10F1000F01BD4DF808EDFFF7F4FF0C
:102CD0000CBF012000205DF808FB00BF4DF808ED97
:102CE000FFF7EAFF34BF012000205DF808FB00BFBA
:102CF0004DF808EDFFF7E0FF94BF012000205DF8DC
:102D000008FB00BF4DF808EDFFF7CEFF94BF012090
:102D100000205DF808FB00BF4DF808EDFFF7C4FF89
:102D200034BF012000205DF808FB00BF4A0011D22B
:102D300012F5001211D20DD56FF47873B3EB625215
:102D40000ED44FEAC12343F0004343EA505323FA21
:102D500002F070474FF00000704750EA013002D196
:102D60004FF0FF3070474FF00000704701FB00F05C
:102D7000032A0AD0C0F30A0303F58063C00AB3F53F
:102D8000006F00D3013080B27047B52101FB00F025
:102D9000C009EFE700B586461046002307E01EF89D
:102DA00003C08CEA000C044A12F80C0001338B4279
:102DB000F5DB5DF804FB00BF78010020F0B585B0BD
:102DC000064614461D46BDF828200818C0F30440E6
:102DD0008B19B4F5445F46D203F07F03B2F5004F80
:102DE0000CD05AB148F201018A4207D048F20201E0
:102DF0008A4203D048F203018A423AD1990041EA5B
:102E0000402C61461143090A8DF80C1002F00300B2
:102E100040EA0C008DF80D00002C36D1B2F5004FC1
:102E20002DD1730063F07E038DF80C300127002A4A
:102E300041D082F40041032964D8334B1B681B7DC9
:102E400093B30022394603A8FFF7A4FF02462146A8
:102E50002846FFF79FFF00902B46224603A93846DD
:102E600001F0B8F832E0294B294AD5212948FDF76D
:102E7000EBF9294B264AD6212648FDF7E5F9274BE1
:102E8000234AE8212348FDF7DFF91BB9B2F5004FCB
:102E900006D03AB141F040018DF80C100227C6E788
:102EA0000127C4E70127C2E72B46224603A938467B
:102EB00001F0C6F80AE02B46224603A9384601F085
:102EC000F1F8114B1B681B7D022B01D005B0F0BD42
:102ED000182EFBD00022394603A8FFF75BFF0246FD
:102EE00021462846FFF756FF04460021182000F02F
:102EF000DCF88442EAD0044B1B685B6A002BE5D007
:102F00009847E3E7FEE700BF8C0000206C710008E3
:102F1000487200087C710008947100082C72000847
:102F200010B582B04FF400440094FFF747FF02B0A1
:102F300010BD00B583B0002306E003F1080CEC449B
:102F40000CF8042C120A0133032BF6DD01AB04222A
:102F500089B2FFF7E5FF03B05DF804FB08B5002276
:102F600011460248FFF7E5FF08BD00BF0400070057
:102F700010B50446002211460848FFF7DAFF002288
:102F800011464FF4E020FFF7D4FF04B910BD4FF015
:102F9000E05200210248FFF7CCFFF7E748000700A6
:102FA0001400070000B583B08DF80420120A8DF8D4
:102FB000052001AB022289B2FFF7B2FF03B05DF832
:102FC00004FB000010B50446012802D0052C07D0F0
:102FD00010BD41F6220200210548FFF7E3FFF5E7A7
:102FE0004FF4007200210248FFF7DCFFF0E700BF5A
:102FF0000400110000B583B08DF807200DF1070320
:10300000012289B2FFF78CFF03B05DF804FB10B515
:1030100082B000240094FFF7D1FE02B010BD00B5CD
:1030200083B001AB042289B2FFF7F1FF0020032334
:1030300007E003F108026A4412F8042C02EB0020B6
:10304000013B002BF5DA03B05DF804FB38B504460C
:103050000A4D012200212846FFF7A4FF2246002145
:103060000748FFF79FFF022200212846FFF79AFF3B
:1030700000210448FFF7D3FF38BD00BF08000B0054
:1030800004000B0010000B0000B583B001AB02225E
:1030900089B2FFF7BCFF9DF805309DF8040000EBF6
:1030A000032080B203B05DF804FB00B583B00DF1DE
:1030B0000703012289B2FFF7AAFF9DF8070003B0BA
:1030C0005DF804FB00B585B08DF80820C2F3072C2D
:1030D0008DF809C0C2F3074C8DF80AC0120E8DF8A6
:1030E0000B208DF80C30C3F307228DF80D20C3F3AD
:1030F00007428DF80E201B0E8DF80F3048F20303A7
:10310000009302AB082289B2FFF758FE05B05DF8C4
:1031100004FB000008B5052802D0092808D008BD26
:1031200040236FF4005200210648FFF7CBFFF6E77B
:103130004FF401536FF4005200210248FFF7C2FF21
:10314000EDE700BF08000B0070B505460C46164EB3
:103150004FF008234FF0FF3200213046FFF7B2FF57
:103160004FF060134FF0FF3200213046FFF7AAFF07
:10317000052D09D00D4B4FF0FF3200214FF4E02018
:10318000FFF7A0FF4CB970BD094B4FF0FF32002193
:103190004FF4E020FFF796FFF4E7064A00210648C7
:1031A000FFF7C7FEEFE700BF48000700001C000262
:1031B000003C0002001101011400070008B50528B9
:1031C00002D0092808D008BD074B4FF0FF3200217C
:1031D0000648FFF777FFF6E7054B4FF0FF32002177
:1031E0000248FFF76FFFEEE7003C00020400070013
:1031F000001C000200B585B08DF80C20120A8DF875
:103200000D208DF80E301B0A8DF80F3048F20203A6
:10321000009303AB042289B2FFF7D0FD05B05DF83F
:1032200004FB000008B54FF4C0734FF6FF72002195
:103230000648FFF7DFFF064B1B681B7A4FF6E0726C
:1032400000210448FFF7D6FF08BD00BF08000B00AF
:103250008C0000201F00110000B585B08DF80C20F7
:103260008DF80D3048F20103009303AB022289B2BE
:10327000FFF7A4FD05B05DF804FB000010B50128C0
:1032800017D002281FD00123FF2200211A48FFF780
:10329000E3FF1A4C4FF400036FF4807200212046C4
:1032A000FFF710FF00237F2202212046FFF7D4FF03
:1032B00010BD0520FFF786FE0123FF2219460F48A7
:1032C000FFF7CAFFF4E70323FF2200210A48FFF7B4
:1032D000C3FF0A4C4FF400036FF4807200212046B4
:1032E000FFF7F0FE00237F2202212046FFF7B4FF04
:1032F0000520FFF767FEDBE704001100080011005E
:1033000008B500210846FFF78AFE08BD10B504463F
:10331000026800210948FFF70CFE62680021084896
:10332000FFF707FEA26800210648FFF702FEE268E9
:1033300000210548FFF7FDFD10BD00BF0C00020095
:1033400010000200140002001800020010B504462C
:10335000026800210948FFF7ECFD62680021084877
:10336000FFF7E7FDA26800210648FFF7E2FDE268EB
:1033700000210548FFF7DDFD10BD00BF1C00020065
:1033800020000200240002002800020008B50123EA
:10339000FF2200210148FFF75FFF08BD0400020083
:1033A0002DE9F843052836D0204C2546204E214FE4
:1033B000DFF8C880DFF8C8901F4A00211F48FFF7D8
:1033C000B8FD4A4600211E48FFF7B3FD42460021E2
:1033D0001C48FFF7AEFD3A4600211B48FFF7A9FD48
:1033E000324600211948FFF7A4FD2A46002118485B
:1033F000FFF79FFD224600211648FFF79AFD164A67
:1034000000211648FFF795FD154A00211548FFF7E2
:1034100090FDBDE8F883144C144D154E154FDFF8A0
:103420006480DFF86490144AC7E700BFB5AF0200BC
:103430007DAF02003EAF0200FEA80200380003008C
:103440003C00030040000300440003004800030068
:103450004C00030050000300400200101C00030059
:1034600089A46D1B20000300F5CF0100B5CF01003A
:1034700036CF01007EC70100FDC00100FEA502009D
:1034800036AC0200BEC601003EC4010038B5264C71
:10349000264A00212046FFF74CFD1023FF22002181
:1034A0002046FFF7D9FE002401E00134E4B2022CEB
:1034B0000AD8142000F08AFD00211D48FFF7F5FD11
:1034C0000128F2D1002300E001231BBB0025164C8C
:1034D000002211462046FFF78DFD012200211448ED
:1034E000FFF788FD0123FF2202212046FFF7B4FEEB
:1034F00000211048FFF793FD6FF0604398420CD015
:1035000000210D48FFF78BFD6FF06043984207D014
:10351000284638BD4FF0FF35D9E74FF0FF35EFE7CC
:103520004FF0FF35F4E700BF0C000400010002007B
:1035300020000400140004001C00040070B50446C0
:103540000026012806D0FFF7A1FF0546012C10D068
:10355000284670BD0A4D31462846FFF795FD0646C0
:1035600040F205134FF6FF7200212846FFF742FE96
:10357000E9E70023324619460148FFF73BFEE7E73B
:103580004800070008B5024600214FF46020FFF70D
:1035900009FD08BD08B5024600210248FFF702FDFB
:1035A00008BD00BF040001001318B3F5806F20DAD6
:1035B00070B505460E4614467F2A08D80B460246CB
:1035C00021464FF4A010FFF7ABFC002070BD142281
:1035D00000210948FFF7ADFC224600210748FFF70C
:1035E000A8FC33462A4600214FF4E810FFF798FC68
:1035F000EBE74FF0FF30704704001F0008001F008A
:1036000008B57F2909D840EA014040EAC2230B4AA5
:1036100000212420FFF756FD08BD803140EA01401B
:1036200040EAC223054A00212420FFF74BFD002178
:103630004FF40020FFF739FDEEE700BF00F400FC77
:1036400008B5024601212820FFF7D4FC08BD000080
:103650002DE9F843044607780379182B04D8C3787A
:10366000182B15D9012600E00126F6B2E379012BCB
:1036700010D000216378013B062B00F2F980DFE8CF
:1036800013F0FA00F700F7000B00F400F7000E004B
:103690000026EAE71021EDE74FF0200901E04FF0A6
:1036A0004809B74B1B681A8A22F0E0021A82E279B5
:1036B0001A73657BAA1C012595401FFA85F84FEA0D
:1036C000C80207EE902AF8EE677A9FEDAE7A67EEB1
:1036D000877AFDEEE77A17EE902A5A82227B5A7596
:1036E000A37B120302F4304242EA0342237A5B01D5
:1036F00003F0200313430B43A34A00211020FFF7DC
:10370000E1FC002E40F0BA80237BABB1A37B012B00
:1037100040F2D980607B042210219C4B33F81000CA
:10372000FFF724FB09EBC80900F07F034FF6807216
:1037300002219748FFF75EFDB9F1FF0F40F3CC80FF
:103740008F4B1A68138A43F0200313824FF480636F
:103750006FF4C05200218F48FFF7B4FCA378FC221D
:1037600000214FF4C020FFF777FD6A1ED2B200217E
:103770004FF40030FFF73EFC6378072B00F0B58074
:103780000020FFF75DFF237B03F00303032B00F012
:10379000B080814A00218148FFF7CBFB002180489F
:1037A000FFF73DFC20F4FF5323F01F03092F00F027
:1037B000A6802279120202F4F8521A43E378DB0061
:1037C000DBB213436279520002F006021A43002171
:1037D0007348FFF7AEFBA27963781B0343EA8223A9
:1037E0006FF4744200212420FFF76CFC63890BB94D
:1037F00081236381628902214FF4C020FFF7D2FB4D
:10380000092F7FD0674A00216748FFF792FB41F6F6
:103810003C7200214FF41020FFF7C4FB1422012159
:103820006248FFF7E7FB0E2202216148FFF7E2FB47
:10383000812200215F48FFF7DDFB022200214420A6
:10384000FFF7D8FB0120FFF719FD0025052D6BD8E8
:10385000142000F0BBFB00214420FFF726FC10F0F1
:10386000020F7DD10135EDB2F0E74FF0800918E786
:103870004FF4807915E74FF0400912E7404B1A6882
:10388000138A43F0600313824FF440636FF4C05215
:1038900000214048FFF716FC40F20632002146485E
:1038A000FFF747FB002211464FF00E10FFF741FBD8
:1038B000424A00213648FFF73CFB7D220021404868
:1038C000FFF798FB4AE7607B032210212F4B33F868
:1038D0001000FFF74BFA25E74FF4A0536FF4C052E6
:1038E00000212C48FFF7EEFB38E70820FFF7A8FE81
:1038F00049E7344A00212948FFF71BFB4EE743F014
:10390000010356E7304A00212748FFF712FB40F633
:103910003C7200214FF41020FFF744FB2B4A00219A
:103920002B48FFF706FB79E7012333BB2379093BDB
:10393000DBB20F2B1AD8124B1B685B7A012B11D00C
:103940003846FFF72DFD4FF4C84348F2FF1200211F
:103950002048FFF74FFC0120FFF7F0FDBDE8F8839A
:103960000023E2E778B2FFF7D5FBECE70023FE2265
:1039700019461848FFF770FCEDE74FF0FF30EDE710
:103980008C0000206666663FCF4FFCFF587200082F
:1039900012000E0008000B004C585FAF0C00060030
:1039A000140001003411071C1C0007005000070020
:1039B00018000700080009000C000E000A5A0C004D
:1039C00016000E00CC355FAF3400011C33A8B508DB
:1039D000100007001800030070B506460D46144697
:1039E000134B1B68DB7B032B0DD04FF49010631936
:1039F000B3F5806F06DA7F2C08D833462A46214675
:103A0000FFF705FB70BD4FF49810F0E7020C0021A2
:103A10000848FFF78EFA224600210748FFF789FA87
:103A200033462A4600214FF4E810FFF7F0FAE9E7A1
:103A30008C00002004001F0008001F0010B5044681
:103A400000210948FFF720FBC0F30B0310F4006FBF
:103A500001D043F470431BB22380044A1268B2F9C8
:103A60001200181A10BD00BF080002008C000020D0
:103A700010B50446012917D0154A012916D04FF078
:103A80000C10144B1B68DB7B012B11D0032B16D1C0
:103A9000114911444FF4F010FFF7F6FAC0092080E5
:103AA000238893B9002010BD0C4AE6E70C48E8E7EC
:103AB00002211046FFF7E8FAC0092080F0E7022152
:103AC000FFF7E2FAC0092080EAE74FF0FF30EAE7AB
:103AD0002C0018008C0000200200E8FF34001800C1
:103AE00014000C0008B50346052200217420FFF7DE
:103AF0008EFA08BD08B503460C4A1268D27B012A2B
:103B000008D0032A0CD1052204214FF4F010FFF74E
:103B10007EFA08BD052200210548FFF778FAF8E78C
:103B2000052200216420FFF772FAF2E78C000020E2
:103B30000400180010B502280BD00023FE221946FD
:103B40001020FFF789FB002211461420FFF72AFA04
:103B500010BD0C460123FF2200211020FFF77CFB43
:103B6000224600211420FFF71DFAF1E708B50246AE
:103B700002210C20FFF716FA08BD08B50246002105
:103B80000C20FFF70FFA08BD08B5FFF7B9FB064B8D
:103B9000984204D0103B984203D1002008BD002079
:103BA000FCE74FF0FF30F9E71203CADEF8B5044630
:103BB000434B1B680022DA73022119821A755A7569
:103BC0009A72DA729A62DA621A635A63DA639A63F1
:103BD000FFF7DAFF00286FD106460420FFF736FA18
:103BE00005460520FFF732FA07460A20FFF72EFAAE
:103BF000334B1A68C0F30440107215B10FB100289E
:103C000036D12020FFF722FA2E4B984233D02C4B8E
:103C10001B6800225A7214F0100F31D114F0200FDB
:103C200035D114F0400F39D114F0800F3DD1244B21
:103C30001B68DA7A0AB98522DA729A7A0AB974228A
:103C40009A721F20FFF702FA1D4C236858731E203A
:103C5000FFF7FCF9236800F07F00987308B92E2263
:103C60009A739A7B00211848FFF7C4F93046F8BDD3
:103C7000FFF7D8FAC5E7124B1B6801225A72CAE750
:103C80000F4B1D680620FFF7E1F92860C6E70C4BD3
:103C90001D680720FFF7DAF96860C2E70820FFF720
:103CA000D5F9074B1B689872BEE70920FFF7CEF9DC
:103CB000034B1B68D872BAE74FF0FF36D6E700BF58
:103CC0008C000020400200101400090038B50446A2
:103CD000074D00212846FFF7A2F9000D0005C4F3A7
:103CE0001302024300212846FFF723F938BD00BF25
:103CF0000800010008B502214420FFF7C5F9C0F310
:103D0000002008BD08B5024600212C20FFF711F95C
:103D100008BD000008B510F01D0F6DD010F0010FA8
:103D20001FD010F0020F15D000231A4619460D209F
:103D3000FFF7F6F803214420FFF7B7F910F0080F5A
:103D400051D100214148FFF76AF9B0F5502F41D019
:103D5000002008BD00231A4619460320FFF7E0F8AB
:103D6000E8E710F0080F10D010F0020F06D0002383
:103D70001A4619460F20FFF7D3F8DBE700231A464F
:103D800019460720FFF7CCF8D4E710F0100F10D039
:103D900010F0020F06D000231A4619460E20FFF736
:103DA000BFF8C7E700231A4619460520FFF7B8F801
:103DB000C0E710F0020F06D000231A461946102063
:103DC000FFF7AEF8B6E700231A4619460920FFF7B9
:103DD000A7F8AFE700231A4619461846FFF7A0F8E0
:103DE0004FF0FF30B5E700231A4619461846FFF793
:103DF00097F84FF0FF30ACE710F0200F12D010F022
:103E0000020F07D000231A4619461120FFF788F841
:103E100000209EE700231A4619460B20FFF780F882
:103E2000002096E710F0020F07D000231A4619462B
:103E30000C20FFF775F800208BE700231A4619467F
:103E40000120FFF76DF8002083E700BF30000F006E
:103E500010B5044670B120F00203013B0F2B48D887
:103E6000DFE803F01047471F4747472647474747C4
:103E70004747472D00231A4619460220FFF750F8FE
:103E800020460DE000231A4619460420FFF748F8A3
:103E900003214420FFF709F910F0080F16D1002084
:103EA00010BD00231A4619460A20FFF739F8EFE73C
:103EB00000231A4619460820FFF732F8E8E70023E6
:103EC0001A4619460620FFF72BF8E1E700231A46A9
:103ED00019461846FFF724F814F0020F02D04FF0ED
:103EE000FF30DDE700231A4619460220FFF718F8D5
:103EF000F5E74FF0FF30D3E738B505460C46012013
:103F0000FFF760F800212046FFF71EF92046FFF773
:103F100055F9C5F30B0200210F48FFF743F80323BF
:103F2000FF2200210D48FFF797F900210B48FFF70A
:103F3000BCF810F0010FF8D1FFF710F80020FFF7E0
:103F400017F80520FFF73EF800210548FFF7ADF808
:103F500000F03F0038BD00BF1C0008001000080042
:103F60001C00070010B50446038953B902780021EC
:103F70000B48FFF73FF8626800210A48FEF7D9FFB7
:103F800010BD00210848FFF790F810F0010F04D190
:103F900005212089FFF7B0FFEDE70921F9E700BF10
:103FA0001C0007000C0001001400010010B500F017
:103FB00011FC044608B9204610BD00F0DCFBFAE70E
:103FC00000B9704708B500F0DDFB08BD08B500F08A
:103FD000ABFB08BD2DE9F8438146884617461E46CF
:103FE000FFF7E4FF0446154802F089FA0128FAD1E8
:103FF000002210214FF0904000F0D0FF0F4D0A2317
:104000004A464146284601F031FF0A233A463146E6
:10401000284601F02BFF0A23012208A9284601F0B7
:1040200025FF012210214FF0904000F0B7FF2046FD
:10403000FFF7C6FF0020BDE8F88300BF180300208B
:104040002DE9F04107460E4614469846FFF7AEFFAD
:104050000546134802F053FA0128FAD10022102134
:104060004FF0904000F09AFF4FF0FF333A46314650
:104070000B4801F0FBFE5CB9012210214FF090408B
:1040800000F08CFF2846FFF79BFF0020BDE8F08181
:104090004FF0FF3322464146014801F0E7FEEBE7CF
:1040A000180300202DE9F84305460E469146984630
:1040B000FFF77CFF0746144802F021FA0128FAD1E5
:1040C000002210214FF0904000F068FF002407E02C
:1040D0004FF0FF33012231190B4801F0C7FE0134C4
:1040E000A542F5DC64234A464146074802F033F90D
:1040F000012210214FF0904000F050FF3846FFF7AA
:104100005FFF0020BDE8F8831803002000B583B0EE
:104110000A4B5A6942F001025A615B6903F00103DC
:104120000193019B002211460E2000F051FD0E204C
:1041300000F086FD03B05DF804FB00BF00100240F4
:104140002DE9F04F8DB07F4800F06AFA00F04AFB8D
:10415000FFF7D0FD0028FBD00120FFF727FDB0F1CD
:10416000FF3F31D07848FFF773FA88BB764B1B7856
:10417000052B31D07548FFF7F5FE02210846FFF701
:10418000D9FC4DF6CA60FFF7F1FC40F24330FFF76F
:10419000F4FC44F2A300FFF7F5F944F2A300FFF7A3
:1041A000F9F940F2E740FFF791FD00263446002E72
:1041B00040F0B380A4B96648FFF7A8F86548FFF758
:1041C000C5F8FFF7E3F8A8E0634800F029FAFEE736
:1041D000624800F025FAFEE76148FFF7C3FECCE72E
:1041E0005C4B042200215F48FEF79AFEFFF7CEF8F1
:1041F00093E000214420FEF712FF5B4B18605B4BFD
:104200000340002BF5D00DF12E00FFF717FC564BA5
:104210001B6813F4804F00F06B810028C0F26881A6
:104220004FF4804200214420FEF783FE00214C2001
:10423000FEF7F5FE00F07F01182900F253814C4D86
:1042400000222846FFF7C8FB0023AB700A22494929
:104250002846FCF76BF8002868D100F0C5FBDFF8B2
:104260003081C8E9000100F09BFB054600F076FBB9
:104270002844354B5D7BAB1C08259D4028444FF6F8
:104280009A133D4D03FB00550027D8F80020D8F8BD
:104290000430AD1843F100032D0A45EA03652846B2
:1042A000FFF730FD2B0223F4FF7323F001032D0EE3
:1042B00044F2A3029B1845F10005304A1360556093
:1042C0002F4D304B1B78AB70802239464420FEF7CF
:1042D00030FE3A4629460C20FFF766F9012239469E
:1042E0000C20FFF78DF96420FFF7F0FC0320FFF7A7
:1042F00011FD00287FF45BAF00214420FEF78FFE04
:1043000010F0800FF8D0802200214420FEF711FE2B
:104310001C4A1378013313700126002E7FF469AF15
:104320000134E4B20020FFF793FD62E70A22164948
:104330000F48FBF7FBFF68B3144A936A013393629B
:10434000002637E768720008640000208000002023
:10435000A0000020900000207C72000890720008ED
:10436000740000201C0002001003002000D027244D
:10437000F8020020C800002096A24D06F00200209E
:10438000E8000020E4020020B000002088020020A5
:10439000E802002000F00EFB6B4EC6E9000100F0C1
:1043A00023FB8046694D05A905F10A0000F036FBA4
:1043B00006A905F10E0000F031FB07A905F1120076
:1043C00000F02CFB624BD3F800B03568DDF818A084
:1043D0000598AAEB0000FEF75FF906460F46A8EB2A
:1043E0000500FEF759F9804689460798A0EB0A00B8
:1043F000FEF752F9CDE90001A5EB0B00FEF74CF9F1
:1044000082468B4642464B4630463946FEF7BEF959
:10441000CDE9020152465B46DDE90001FEF7B6F93F
:1044200002460B46DDE90201FDF7F8FFCDE9020186
:1044300042464B4630463946FDF7F2FFDDE90023A0
:10444000FDF7EEFF52465B46FDF7EAFF02460B46DC
:10445000DDE90201FEF7C4FAFEF7AAFBFEF768F9F0
:1044600035A3D3E90023FEF791F935A3D3E900235F
:10447000FEF78CF9CDE9080108A800F0E7F8DDE9BE
:10448000082334493448FCF773FB002233491220D7
:10449000FFF78AF8012200211220FFF7B1F800206F
:1044A000FFF738FC88B12E4800F0BAF82D4DDDE951
:1044B00008232D492846FCF75BFB284600F0B0F89E
:1044C000BE2000F04DF9002674E600214420FEF7DE
:1044D000A6FD10F0800FF8D0802200214420FEF7C6
:1044E00028FDE3E7214A536901335361002661E661
:1044F000054618461D4900F0B1F91D4B1B6813F421
:10450000804F03D1194A936A01339362002D0EDB69
:10451000BDF92E30002B03DC144A136B01331363F7
:10452000144A00214420FEF704FD002642E60F4A0B
:10453000D36A0133D362EBE7FA48CE3B1835B13D7D
:104540000000001319DDB141F0020020F802002044
:10455000E8020020A472000878020020D4000020A5
:10456000AC72000828010020B07200088802002008
:104570001003002000900524014B024A1A60704786
:10458000140300204141000870B588B00024039452
:1045900004940594069407941F4B5A6942F48002D0
:1045A0005A615A6902F480020092009A5A6942F4F0
:1045B00000325A615A6902F400320192019A5A6932
:1045C00042F480225A615B6903F480230293029BC8
:1045D000224610214FF0904000F0E0FC0F4D2246A3
:1045E0004FF44051284600F0D9FC102303930126D4
:1045F00004960594069403A94FF0904000F0EAFB5E
:104600004FF44053039304960594069403A9284657
:1046100000F0E0FB08B070BD00100240000400484C
:1046200038B50446FCF7CCFA064D0A2382B221467F
:10463000284602F009FB0A2302220349284602F019
:1046400003FB38BD14040020BC72000800B583B021
:1046500001904FF0FF3304220DEB0201024802F0FB
:10466000F3FA03B05DF804FB1404002072B6FEE711
:1046700000B59FB02822002114A8FBF789FE002175
:104680000F9110911191129113913C226846FBF702
:104690007FFE012314934FF48032159216931893E2
:1046A00002231B931C924FF4E0131D9314A800F0F7
:1046B00093FCC0B90F230F93022110910023119393
:1046C0004FF48062129213930FA800F0CFFF60B9ED
:1046D0000123009300230293684601F0CDF830B91E
:1046E0001FB05DF804FBFFF7C1FFFFF7BFFFFFF747
:1046F000BDFF000008B5FFF73FFF00F01FFAFFF70E
:10470000B7FFFFF741FFFFF701FD02F05DFC00F08E
:1047100095F902F00DFC00F02EF8024B1B6898474B
:10472000FEE700BF1403002080B485B000AF7860BE
:104730007A6813465B0013449B007B600023FB6098
:1047400003E000BFFB680133FB60FA687B689A42B4
:10475000F7D3002318461437BD465DF8047B704735
:1047600080B582B000AF7860786800F00BFA00BFC7
:104770000837BD4680BD80B500AF062000F05CF86C
:1047800000BF80BD80B500AF062000F047F800BF35
:1047900080BD000080B483B000AF0346FB710C4ABB
:1047A00097F907305B0952F82320FB7903F01F03C8
:1047B00022FA03F303F00103002B14BF01230023AB
:1047C000DBB218460C37BD465DF8047B704700BF6E
:1047D00000E100E080B500AF0620FFF7DBFF0346F5
:1047E000184680BD80B500AF00224FF400510A4842
:1047F00000F0D4FB062000F0C5F901224FF400516F
:10480000054800F0CBFB032000F0BCF90220FFF7C5
:10481000A7FF00BF80BD00BF00040048002807DBE1
:1048200000F01F02400901239340024A42F8203061
:10483000704700BF00E100E000280CDB00F01F0221
:104840004009012393402030034A42F82030BFF34F
:104850004F8FBFF36F8F704700E100E010B582B05B
:104860000C460023ADF8063010F4804F02D18B6A5D
:1048700001338B6210F4803F02D0636801336360C0
:1048800010F4805F02D0A3680133A36010F4001F0E
:1048900002D023690133236110F0005F02D0236A44
:1048A0000133236200F4C043B3F5005F10D010F46D
:1048B000081F02D063690133636110F0806F02D07A
:1048C000E3680133E36010F0805F05D102B010BDF2
:1048D000236801332360EAE7636B013363630021DC
:1048E0000DF10600FFF7C4F8BDF8063013F4807F21
:1048F00002D0A26B0132A26313F0800F02D0E26BF0
:104900000132E26313F0400F02D0226C01322264C4
:1049100013F0200F02D0626C0132626413F0100FAA
:1049200002D0A26C0132A26413F0080F02D0E26C34
:104930000132E26413F0040F02D0226D01322265CD
:1049400013F0020F02D0626D0132626513F0010FA5
:10495000BCD0A36D0133A365B8E700000F4B5B78B3
:10496000023B0B2B07D8DFE803F00B1406060E06FC
:10497000061711060608002070474FF4C0707047F4
:104980004FF4607070474FF4B06070474FF4F060C0
:1049900070474FF4786070478020704764000020B3
:1049A000034B9B790BB100207047C820704700BFB4
:1049B0006400002000B583B06846FFF793F8042335
:1049C000002001460BE0090241EA106103F10802F0
:1049D0006A4412F8082C42EA0020013B5BB2002B2B
:1049E000F1DA03B05DF804FB00B583B06846FFF769
:1049F00081F80423002001460BE0090241EA10611E
:104A000003F108026A4412F8082C42EA0020013B34
:104A10005BB2002BF1DA03B05DF804FB00230B60FE
:104A200009E0C25C4FEAC30C02FA0CFC0A6862445B
:104A30000A600133DBB2032BF3D9704708B5104885
:104A4000104B03604FF482734360002383604FF484
:104A5000E062C260036143614FF400728261182218
:104A6000C2610362436283620722C2620363082356
:104A7000436301F087F900B908BDFFF7F7FDFBE7D5
:104A8000180300200030014000B589B000230393D3
:104A900004930593069307930268144B9A4202D03D
:104AA00009B05DF804FB03F560439A6942F4805253
:104AB0009A619A6902F480520192019A5A6942F409
:104AC00000325A615B6903F400330293029BE023D6
:104AD000039302230493032306930523079303A957
:104AE0004FF0904000F076F9DAE700BF0030014067
:104AF00010B504460E4B18784FF47A73B3FBF0F3FD
:104B00000C4A1068B0FBF3F000F0A8F868B90F2C5D
:104B100001D901200AE0002221464FF0FF3000F0C9
:104B200057F8054B1C60002000E0012010BD00BFBD
:104B3000F4000020FC000020F800002008B5074A1F
:104B4000136843F010031360032000F02FF80F20C8
:104B5000FFF7CEFF00F028FA002008BD0020024039
:104B6000034A1168034B1B780B441360704700BF66
:104B70007C030020F4000020014B1868704700BF40
:104B80007C03002038B50446FFF7F6FF0546B4F174
:104B9000FF3F02D0044B1B781C44FFF7EDFF401B86
:104BA000A042FAD338BD00BFF4000020074AD36802
:104BB00023F4E0631B041B0C000200F4E0600343D9
:104BC00043F0BF6343F40033D360704700ED00E06F
:104BD00000B5194BDB68C3F30223C3F1070CBCF12A
:104BE000040F28BF4FF0040C03F1040EBEF1060FB2
:104BF00018D9033B4FF0FF3E0EFA0CFC21EA0C01E2
:104C000099400EFA03F322EA0303194300280BDB51
:104C10000901C9B200F1604000F5614080F800135D
:104C20005DF804FB0023E5E700F00F000901C9B2BD
:104C3000024B1954F4E700BF00ED00E014ED00E072
:104C4000002807DB00F01F02400901239340024ABD
:104C500042F82030704700BF00E100E00138B0F1B9
:104C6000807F0BD24FF0E0235861054AF02182F893
:104C700023100020986107221A61704701207047B5
:104C800000ED00E002680C4B9A420AD80B4B13442B
:104C90000B4AA2FB03231B099B000364094BC3635C
:104CA0007047094B1344064AA2FB03231B099B00D0
:104CB0000364064BC363704707040240F8FFFDBF5F
:104CC000CDCCCCCC00000240F8FBFDBF000402407C
:104CD00020B310B50446022380F8213001680A6829
:104CE00022F47F5222F03002436880680343E06878
:104CF00003432069034360690343A0690343E069F8
:104D0000034313430B602046FFF7BCFF0020A06362
:104D1000012384F8213084F8200010BD0120704761
:104D200038B5C36B1A6804682568016C04238B408E
:104D3000134213D015F0040F10D0236813F0200F86
:104D400003D1236823F004032360016CC26B0423A6
:104D50008B405360C36A03B1984738BD02238B4030
:104D600013421AD015F0020F17D0236813F0200F4A
:104D700006D1236823F00A032360012380F8213041
:104D8000016CC26B02238B405360002380F82030FB
:104D9000836A002BE1D09847DFE7082303FA01F18B
:104DA0001142DAD015F0080FD7D0236823F00E0394
:104DB0002360026CC16B012303FA02F24A60836331
:104DC00080F82130002380F82030036B002BC4D002
:104DD0009847C2E7F0B583B0002362E085685E00C3
:104DE0000324B44025EA0405CC68B4402C43846015
:104DF000446824EA0C0C4C68C4F300149C4044EA58
:104E00000C0444605EE0DD08083550F8256003F0CE
:104E100007044FEA840C0F2404FA0CF426EA040E6B
:104E20000C6904FA0CF444EA0E0440F8254060E0F2
:104E3000042400E0002404FA0EF42C430CF1020CCC
:104E4000524D45F82C40524CA568D44325EA020641
:104E50004F6817F4801F01D042EA05064C4DAE6042
:104E6000ED6804EA05064F6817F4001F01D042EA16
:104E70000506474DEE606D6804EA05064F6817F4B5
:104E8000003F01D042EA0506414D6E602D682C407E
:104E90004E6816F4803F01D042EA05043C4A146093
:104EA00001330A6832FA03F46ED04FF0010C0CFAA9
:104EB00003FC1CEA0202F3D04C6804F00304013C3A
:104EC000012C8BD94C6804F00304032C0CD0C4686B
:104ED0005D004FF0030C0CFA05FC24EA0C0C8C6806
:104EE000AC4044EA0C04C4604C6804F00304022C97
:104EF00089D004684FEA430E4FF0030C0CFA0EFC05
:104F000024EA0C0C4C6804F0030404FA0EF444EA9E
:104F10000C0404604C6814F4403FC1D01D4CA569DA
:104F200045F00105A561A46904F001040194019C08
:104F30004FEA930C0CF10205144C54F8255003F081
:104F400003044FEA840E0F2404FA0EF425EA040544
:104F5000B0F1904F3FF46EAF0F4CA0420ED004F56D
:104F60008064A0420CD004F58064A0420AD004F50D
:104F70008064A0423FF45CAF05245CE701245AE75B
:104F8000022458E7032456E703B0F0BD00000140B7
:104F90000004014000100240000400480AB1816191
:104FA000704781627047000082B00A4B9A6942F0F4
:104FB00001029A619A6902F001020092009ADA698C
:104FC00042F08052DA61DB6903F080530193019B68
:104FD00002B0704700100240002800F0018370B555
:104FE00082B00446036813F0010F3BD0B54B5B68F9
:104FF00003F00C03042B1ED0B24B5B6803F00C03D0
:10500000082B13D06368B3F5803F68D0002B40F0C5
:10501000928003F1804303F504331A6822F480324E
:105020001A601A6822F480221A605DE0A54B5B6862
:1050300013F4803FE6D04FF4003393FAA3F3A14B6F
:1050400019684FF4003393FAA3F3B3FA83F303F030
:105050001F03012202FA03F30B4203D06368002B03
:1050600000F0C082236813F0020F00F0C580954B5A
:105070005B6813F00C0F00F09C80924B5B6803F0B0
:105080000C03082B00F08F802369002B00F0F280C6
:10509000012292FAA2F3B3FA83F303F1845303F5E6
:1050A00084139B001A60FFF767FD0546022393FAFD
:1050B000A3F3844B1968022393FAA3F3B3FA83F39F
:1050C00003F01F03012202FA03F30B4240F0C380F6
:1050D000FFF752FD401B0228E8D903208BE2794AF2
:1050E000136843F480331360764AD36A23F00F03C6
:1050F000A1680B43D3626368002B36D0FFF73CFDF9
:1051000005464FF4003393FAA3F36E4B19684FF43E
:10511000003393FAA3F3B3FA83F303F01F030122DE
:1051200002FA03F30B429DD1FFF726FD401B6428D2
:10513000E7D903205FE2B3F5A02F09D0614B1A68CD
:1051400022F480321A601A6822F480221A60CBE7B7
:1051500003F18043A3F53C331A6842F480221A60BD
:105160001A6842F480321A60BEE7FFF705FD054673
:105170004FF4003393FAA3F3524B19684FF4003302
:1051800093FAA3F3B3FA83F303F01F03012202FAA5
:1051900003F30B423FF466AFFFF7EEFC401B6428BD
:1051A000E6D9032027E2474B5B6813F4803F7FF486
:1051B0006BAF022393FAA3F3424B1968022393FACD
:1051C000A3F3B3FA83F303F01F03012202FA03F3FC
:1051D0000B4203D02369934240F0068239480368AA
:1051E00023F0F8036169F82292FAA2F2B2FA82F28D
:1051F00001FA02F213430360236813F0080F00F072
:105200008D80A369002B61D0012191FAA1F2B2FA3D
:1052100082F22D4B13449B001960FFF7ADFC05464D
:10522000022393FAA3F293FAA3F293FAA3F2254A84
:10523000516A93FAA3F3B3FA83F303F01F03012235
:1052400002FA03F30B4269D1FFF796FC401B0228D8
:10525000E6D90320CFE11B48036823F0F803616916
:10526000F82292FAA2F2B2FA82F201FA02F213439F
:105270000360C1E7012393FAA3F3B3FA83F303F1C5
:10528000845303F584139B0000221A60FFF774FC1B
:105290000546022393FAA3F30A4B1968022393FAF3
:1052A000A3F3B3FA83F303F01F03012202FA03F31B
:1052B0000B42A1D0FFF760FC401B0228E9D9032074
:1052C00099E100BF0010024020819010012292FA63
:1052D000A2F2B2FA82F2B74B13449B0000221A608A
:1052E000FFF74AFC0546022393FAA3F293FAA3F2CE
:1052F00093FAA3F2B04A516A93FAA3F3B3FA83F391
:1053000003F01F03012202FA03F30B4206D0FFF75A
:1053100033FC401B0228E6D903206CE1236813F01C
:10532000040F00F0A980A44BDB6913F0805F20D14B
:10533000A14BDA6942F08052DA61DB6903F08053F5
:105340000193019B01259D4B1B6813F4807F12D0B4
:10535000E368012B23D073BB03F1804303F50433CF
:105360001A6A22F001021A621A6A22F004021A6210
:105370001AE00025E7E7914A136843F4807313604D
:10538000FFF7FAFB06468D4B1B6813F4807FDFD1D5
:10539000FFF7F2FB801B6428F5D903202BE1864A36
:1053A000136A43F001031362E368002B3CD0FFF75C
:1053B000E3FB06462BE0052B09D07F4B1A6A22F04F
:1053C00001021A621A6A22F004021A62ECE77A4BAE
:1053D0001A6A42F004021A621A6A42F001021A6260
:1053E000E2E7754B196A022393FAA3F3B3FA83F346
:1053F00003F01F03012202FA03F319423BD1FFF726
:10540000BBFB801B41F28833984200F2EF800223FD
:1054100093FAA3F293FAA3F3002BE2D1022393FAB7
:10542000A3F3654B596ADEE7FFF7A6FB064615E0D6
:10543000614B196A022393FAA3F3B3FA83F303F0DF
:105440001F03012202FA03F3194214D0FFF794FB61
:10545000801B41F28833984200F2CA80022393FAFB
:10546000A3F293FAA3F3002BE2D1022393FAA3F35E
:10547000514B596ADEE7B5BBE369002B00F0BA80F7
:105480004D4A526802F00C02082A00F09980022B63
:105490002FD04FF0807393FAA3F3B3FA83F303F1A1
:1054A000845303F584139B0000221A60FFF764FB0A
:1054B00004464FF0007393FAA3F33F4B19684FF083
:1054C000007393FAA3F3B3FA83F303F01F030122EB
:1054D00002FA03F319426BD0FFF74EFB001B0228C0
:1054E000E7D9032087E0344AD36923F08053D3619E
:1054F000C2E74FF0807393FAA3F3B3FA83F303F197
:10550000845303F584139B0000221A60FFF734FBD9
:1055100005464FF0007393FAA3F3274B19684FF039
:10552000007393FAA3F3B3FA83F303F01F0301228A
:1055300002FA03F3194206D0FFF71EFB401B0228B4
:10554000E7D9032057E01C494B6823F47413626ABF
:10555000206A024313434B604FF0807393FAA3F326
:10556000B3FA83F303F1845303F584139B00012200
:105570001A60FFF701FB04464FF0007393FAA3F3A0
:105580000D4B19684FF0007393FAA3F3B3FA83F34A
:1055900003F01F03012202FA03F3194206D1FFF7B9
:1055A000EBFA001B0228E7D9032024E0002022E0C8
:1055B000002020E020819010001002400070004088
:1055C000012B1AD0104B5B6803F48031226A9142A0
:1055D00015D103F47013626A934212D100200AE0DD
:1055E00001207047012006E0012004E0032002E0D2
:1055F000032000E0002002B070BD0120FBE7012085
:10560000F9E70120F7E700BF00100240114B5A688C
:1056100002F00C03042B18D0082B18D1C2F38343DB
:105620000D49C85C0B4BDB6A03F00F030B49C95CE7
:1056300012F4803F05D00A4BB3FBF1F303FB00F0FB
:105640007047084B03FB00F0704705487047064859
:10565000704700BF00100240C0720008D0720008FE
:105660000024F40000093D0000127A00002800F038
:10567000BE8070B50D460446614B1B6803F00703FE
:105680008B420BD25E4A136823F007030B4313606F
:10569000136803F007038B4240F0AB80236813F0DC
:1056A000020F06D0574A536823F0F003A1680B435A
:1056B0005360236813F0010F5AD06368012B2DD07B
:1056C000022B40D0022292FAA2F24E4A1068022225
:1056D00092FAA2F2B2FA82F202F01F02012101FA5A
:1056E00002F2104200F0878046494A6822F0030225
:1056F00013434B60FFF740FA0646424B5B6803F0EA
:105700000C036268B3EB820F32D0FFF735FA801BCF
:1057100041F288339842F0D9032067E04FF4003219
:1057200092FAA2F2374A10684FF4003292FAA2F2CB
:10573000B2FA82F202F01F02012101FA02F20242E1
:10574000D2D1012052E04FF0007292FAA2F22D4A1B
:1057500010684FF0007292FAA2F2B2FA82F202F0EE
:105760001F02012101FA02F21042BDD101203DE0E9
:10577000234B1B6803F00703AB420AD9204A136886
:1057800023F007032B431360136803F00703AB42B6
:1057900033D1236813F0040F06D01A4A536823F458
:1057A000E063E1680B435360236813F0080F07D0F0
:1057B000144A536823F46053216943EAC1035360D8
:1057C000FFF724FF0F4B5B6803F0F003F02292FA1F
:1057D000A2F2B2FA82F2D3400B4AD35CD8400B4B10
:1057E00018600B4B1868FFF783F9002070BD01208B
:1057F00070470120FAE70120F8E70120F6E700BF33
:105800000020024000100240E0720008FC0000206E
:10581000F8000020014B1868704700BFFC00002012
:1058200008B5FFF7F7FF074B5B6803F4E0634FF43D
:10583000E06292FAA2F2B2FA82F2D340024AD35C58
:10584000D84008BD00100240F072000808B5FFF70C
:10585000E1FF074B5B6803F460534FF4605292FA28
:10586000A2F2B2FA82F2D340024AD35CD84008BD19
:1058700000100240F0720008F0B583B004460368DF
:1058800013F4803F48D0914BDB6913F0805F40F008
:10589000D4808E4BDA6942F08052DA61DB6903F022
:1058A00080530193019B0125894B1B6813F4807F72
:1058B00000F0C580854B1B6A13F4407322D06268E8
:1058C00002F440729A421DD08048016A21F4407669
:1058D0004FF4803393FAA3F2B2FA82F27D4F3A4446
:1058E00092004FF0010CC2F800C093FAA3F3B3FA90
:1058F00083F33B449B0000221A60066211F0010F03
:1059000040F0B280714A136A23F4407361680B431C
:105910001362002D40F0CF80236813F0010F06D0F2
:105920006A4A136B23F00303A1680B4313632368D4
:1059300013F0020F06D0654A136B23F44033E1687D
:105940000B431363236813F0040F06D05F4A136BF5
:1059500023F4402321690B431363236813F0200FC2
:1059600006D05A4A136B23F01003E1690B4313630B
:10597000236813F4003F06D0544A536823F480038D
:10598000A16B0B435360236813F0400F06D04F4ABE
:10599000136B23F02003216A0B431363236813F076
:1059A000080F06D0494A136B23F4401361690B4377
:1059B0001363236813F0100F06D0444A136B23F4CB
:1059C0004003A1690B431363236813F4007F06D0DF
:1059D0003E4A536823F40003E16A0B435360236893
:1059E00013F0800F06D0394AD36A23F4F873616A42
:1059F0000B43D362236813F4807F06D0334AD36A03
:105A000023F47853A16A0B43D362236813F4805FB5
:105A100006D02E4A136B23F48073216B0B43136360
:105A2000236813F4005F4DD0284A136B23F40073EE
:105A3000616B0B431363002045E0002534E7244AE3
:105A4000136843F480731360FFF796F80646204B03
:105A50001B6813F4807F7FF42DAFFFF78DF8801B58
:105A60006428F4D903202EE0FFF786F8064615E0F7
:105A7000164B196A022393FAA3F3B3FA83F303F0E4
:105A80001F03012202FA03F30B427FF43BAFFFF73F
:105A900073F8801B41F28833984211D8022393FA9D
:105AA000A3F293FAA3F3002BE2D1022393FAA3F318
:105AB000064B596ADEE7D36923F08053D3612BE7A5
:105AC000032000E0002003B0F0BD00BF0010024042
:105AD00000700040008190102DE9F04782B005462B
:105AE000884617461E46FFF747F80A9B1B1A03EB2A
:105AF0000609FFF741F882462B4B1B68C3F3CB33F3
:105B000009FB03F301932B689C6838EA04030CBF7C
