:020000040800F2
:100000000080002055190008891800088B18000886
:100010008D1800088F1800089118000800000000D3
:10002000000000000000000000000000931800081D
:10003000951800080000000097180008991800089B
:10004000A5190008A5190008A5190008A519000898
:10005000A5190008A5190008A5190008A519000888
:10006000A5190008A5190008A5190008A519000878
:10007000A5190008A5190008A5190008A519000868
:10008000A5190008A5190008A5190008A519000858
:10009000A5190008A5190008A5190008A519000848
:1000A000A5190008A5190008A5190008A519000838
:1000B000A5190008A5190008A5190008A519000828
:1000C000A5190008A5190008A5190008A519000818
:1000D000A5190008A5190008A5190008A519000808
:1000E000A5190008A5190008A5190008A5190008F8
:1000F000A5190008A5190008A5190008A5190008E8
:10010000000000000000000000000000A519000829
:10011000A5190008A5190008A5190008A5190008C7
:10012000A5190008A5190008A5190008A5190008B7
:10013000A5190008A5190008000000000000000033
:10014000A5190008A5190008A5190008000000005D
:10015000000000000000000000000000000000009F
:100160000000000000000000A5190008A519000803
:10017000A5190008000000000000000000000000B9
:0801800000000000A5190008B1
:100188000348044B834202D0034B03B1184770471E
:100198000C0000200C000020000000000548064963
:1001A8000B1AD90F01EBA301491002D0034B03B17D
:1001B800184770470C0000200C00002000000000C9
:1001C80010B5064C237843B9FFF7DAFF044B13B197
:1001D8000448AFF300800123237010BD0C000020F9
:1001E80000000000A819000808B5044B1BB1044919
:1001F8000448AFF30080BDE80840CFE700000000E6
:1002080010000020A819000870B50D4E0D4D761B82
:10021800B61006D0002455F8043B01349847A6428E
:10022800F9D1094E094D761B01F0BAFBB61006D07C
:10023800002455F8043B01349847A642F9D170BD13
:10024800F8190008F8190008FC190008F81900083E
:10025800830730B548D0541E002A3FD0CAB203469F
:1002680001E0013C3AD303F8012B9D07F9D1032C97
:100278002DD9CDB245EA05250F2C45EA054536D9D5
:10028800A4F1100222F00F0C03F1200EE6444FEA0D
:10029800121C03F1100242E9045542E902551032DA
:1002A8007245F8D10CF1010214F00C0F03EB0212A5
:1002B80004F00F0C13D0ACF1040323F00303043350
:1002C800134442F8045B9342FBD10CF003042CB1B5
:1002D800CAB21C4403F8012B9C42FBD130BD6446D2
:1002E8001346002CF4D1F9E703461446BFE71A4633
:1002F800A446E0E782B00A4B5A6942F480025A6188
:100308005A6902F480020092009A5A6942F4003253
:100318005A615B6903F400330193019B02B0704793
:100328000010024000B585B08DED000B0DF1080CF2
:100338006B4693E803008CE803004FF0FF33082274
:100348006146034801F0A4F905B05DF804FB00BF5D
:100358002C00002072B6FEE700B59FB028220021CD
:1003680014A8FFF775FF00210F91109111911291B8
:1003780013913C226846FFF76BFF012314934FF457
:10038800803215921693189302231B931C924FF4F4
:10039800E0131D9314A800F0F3F9C0B90F230F93CD
:1003A80002211091002311934FF48062129213934B
:1003B8000FA800F02FFD60B90123009300230293DA
:1003C800684600F02DFE30B91FB05DF804FBFFF75A
:1003D800C1FFFFF7BFFFFFF7BDFF000000000000EF
:1003E80008B500F03BF8FFF7B7FFFFF783FF01F010
:1003F8005DFA9FED050BFFF795FF4FF4FA7000F0DB
:1004080051F8F6E7AFF3008077BE9F1A2FDD5E4004
:1004180010B504460E4B18784FF47A73B3FBF0F31B
:100428000C4A1068B0FBF3F000F09AF868B90F2C8A
:1004380001D901200AE0002221464FF0FF3000F0E8
:1004480057F8054B1C60002000E0012010BD00BFDC
:1004580000000020080000200400002008B5074A1A
:10046800136843F010031360032000F02FF80F20E7
:10047800FFF7CEFF00F06CF9002008BD0020024015
:10048800034A1168034B1B780B441360704700BF85
:100498002800002000000020014B1868704700BFAA
:1004A8002800002038B50446FFF7F6FF0546B4F1EA
:1004B800FF3F02D0044B1B781C44FFF7EDFF401BA5
:1004C800A042FAD338BD00BF00000020074AD36815
:1004D80023F4E0631B041B0C000200F4E0600343F8
:1004E80043F0BF6343F40033D360704700ED00E08E
:1004F80000B5194BDB68C3F30223C3F1070CBCF149
:10050800040F28BF4FF0040C03F1040EBEF1060FD0
:1005180018D9033B4FF0FF3E0EFA0CFC21EA0C0100
:1005280099400EFA03F322EA0303194300280BDB70
:100538000901C9B200F1604000F5614080F800137C
:100548005DF804FB0023E5E700F00F000901C9B2DC
:10055800024B1954F4E700BF00ED00E014ED00E091
:100568000138B0F1807F0BD24FF0E0235861054A83
:10057800F02182F823100020986107221A61704741
:100588000120704700ED00E0F0B583B0002362E081
:1005980085685E000324B44025EA0405CC68B440AD
:1005A8002C438460446824EA0C0C4C68C4F300149F
:1005B8009C4044EA0C0444605EE0DD08083550F8CD
:1005C800256003F007044FEA840C0F2404FA0CF4A6
:1005D80026EA040E0C6904FA0CF444EA0E0440F806
:1005E800254060E0042400E0002404FA0EF42C43C3
:1005F8000CF1020C524D45F82C40524CA568D443DE
:1006080025EA02064F6817F4801F01D042EA050662
:100618004C4DAE60ED6804EA05064F6817F4001FFC
:1006280001D042EA0506474DEE606D6804EA05060A
:100638004F6817F4003F01D042EA0506414D6E604D
:100648002D682C404E6816F4803F01D042EA05041C
:100658003C4A146001330A6832FA03F46ED04FF052
:10066800010C0CFA03FC1CEA0202F3D04C6804F0FB
:100678000304013C012C8BD94C6804F00304032CBF
:100688000CD0C4685D004FF0030C0CFA05FC24EA9A
:100698000C0C8C68AC4044EA0C04C4604C6804F050
:1006A8000304022C89D004684FEA430E4FF0030C70
:1006B8000CFA0EFC24EA0C0C4C6804F0030404FA4F
:1006C8000EF444EA0C0404604C6814F4403FC1D0B2
:1006D8001D4CA56945F00105A561A46904F0010454
:1006E8000194019C4FEA930C0CF10205144C54F848
:1006F800255003F003044FEA840E0F2404FA0EF485
:1007080025EA0405B0F1904F3FF46EAF0F4CA042BC
:100718000ED004F58064A0420CD004F58064A04299
:100728000AD004F58064A0423FF45CAF05245CE77E
:1007380001245AE7022458E7032456E703B0F0BD22
:10074800000001400004014000100240000400487D
:1007580082B00A4B9A6942F001029A619A6902F0E2
:1007680001020092009ADA6942F08052DA61DB698C
:1007780003F080530193019B02B0704700100240C0
:10078800002800F0018370B582B00446036813F0B6
:10079800010F3BD0B54B5B6803F00C03042B1ED054
:1007A800B24B5B6803F00C03082B13D06368B3F5F6
:1007B800803F68D0002B40F0928003F1804303F51E
:1007C80004331A6822F480321A601A6822F48022EC
:1007D8001A605DE0A54B5B6813F4803FE6D04FF4E8
:1007E800003393FAA3F3A14B19684FF4003393FA3B
:1007F800A3F3B3FA83F303F01F03012202FA03F30E
:100808000B4203D06368002B00F0C082236813F00A
:10081800020F00F0C580954B5B6813F00C0F00F0D9
:100828009C80924B5B6803F00C03082B00F08F80D0
:100838002369002B00F0F280012292FAA2F3B3FAA6
:1008480083F303F1845303F584139B001A60FFF7C5
:1008580023FE0546022393FAA3F3844B1968022367
:1008680093FAA3F3B3FA83F303F01F03012202FA06
:1008780003F30B4240F0C380FFF70EFE401B022833
:10088800E8D903208BE2794A136843F48033136074
:10089800764AD36A23F00F03A1680B43D3626368D7
:1008A800002B36D0FFF7F8FD05464FF4003393FAD6
:1008B800A3F36E4B19684FF4003393FAA3F3B3FA1A
:1008C80083F303F01F03012202FA03F30B429DD1C5
:1008D800FFF7E2FD401B6428E7D903205FE2B3F588
:1008E800A02F09D0614B1A6822F480321A601A6866
:1008F80022F480221A60CBE703F18043A3F53C334E
:100908001A6842F480221A601A6842F480321A6027
:10091800BEE7FFF7C1FD05464FF4003393FAA3F392
:10092800524B19684FF4003393FAA3F3B3FA83F3E5
:1009380003F01F03012202FA03F30B423FF466AFF0
:10094800FFF7AAFD401B6428E6D9032027E2474B9E
:100958005B6813F4803F7FF46BAF022393FAA3F331
:10096800424B1968022393FAA3F3B3FA83F303F013
:100978001F03012202FA03F30B4203D023699342B7
:1009880040F006823948036823F0F8036169F822C9
:1009980092FAA2F2B2FA82F201FA02F21343036067
:1009A800236813F0080F00F08D80A369002B61D035
:1009B800012191FAA1F2B2FA82F22D4B13449B0065
:1009C8001960FFF769FD0546022393FAA3F293FA2B
:1009D800A3F293FAA3F2254A516A93FAA3F3B3FA5E
:1009E80083F303F01F03012202FA03F30B4269D1D8
:1009F800FFF752FD401B0228E6D90320CFE11B4830
:100A0800036823F0F8036169F82292FAA2F2B2FAB5
:100A180082F201FA02F213430360C1E7012393FA59
:100A2800A3F3B3FA83F303F1845303F584139B0010
:100A380000221A60FFF730FD0546022393FAA3F35C
:100A48000A4B1968022393FAA3F3B3FA83F303F06A
:100A58001F03012202FA03F30B42A1D0FFF71CFD8A
:100A6800401B0228E9D9032099E100BF0010024089
:100A780020819010012292FAA2F2B2FA82F2B74BC8
:100A880013449B0000221A60FFF706FD0546022367
:100A980093FAA3F293FAA3F293FAA3F2B04A516A33
:100AA80093FAA3F3B3FA83F303F01F03012202FAC4
:100AB80003F30B4206D0FFF7EFFC401B0228E6D9F0
:100AC80003206CE1236813F0040F00F0A980A44B05
:100AD800DB6913F0805F20D1A14BDA6942F08052C4
:100AE800DA61DB6903F080530193019B01259D4B7B
:100AF8001B6813F4807F12D0E368012B23D073BBEB
:100B080003F1804303F504331A6A22F001021A62E2
:100B18001A6A22F004021A621AE00025E7E7914AED
:100B2800136843F480731360FFF7B6FC06468D4BD9
:100B38001B6813F4807FDFD1FFF7AEFC801B6428AD
:100B4800F5D903202BE1864A136A43F001031362A7
:100B5800E368002B3CD0FFF79FFC06462BE0052BF3
:100B680009D07F4B1A6A22F001021A621A6A22F02F
:100B780004021A62ECE77A4B1A6A42F004021A621B
:100B88001A6A42F001021A62E2E7754B196A0223F7
:100B980093FAA3F3B3FA83F303F01F03012202FAD3
:100BA80003F319423BD1FFF777FC801B41F28833EE
:100BB800984200F2EF80022393FAA3F293FAA3F388
:100BC800002BE2D1022393FAA3F3654B596ADEE7BF
:100BD800FFF762FC064615E0614B196A022393FA97
:100BE800A3F3B3FA83F303F01F03012202FA03F31A
:100BF800194214D0FFF750FC801B41F28833984209
:100C080000F2CA80022393FAA3F293FAA3F3002B0B
:100C1800E2D1022393FAA3F3514B596ADEE7B5BB3D
:100C2800E369002B00F0BA804D4A526802F00C02CA
:100C3800082A00F09980022B2FD04FF0807393FA86
:100C4800A3F3B3FA83F303F1845303F584139B00EE
:100C580000221A60FFF720FC04464FF0007393FA55
:100C6800A3F33F4B19684FF0007393FAA3F3B3FA59
:100C780083F303F01F03012202FA03F319426BD036
:100C8800FFF70AFC001B0228E7D9032087E0344A53
:100C9800D36923F08053D361C2E74FF0807393FA8E
:100CA800A3F3B3FA83F303F1845303F584139B008E
:100CB80000221A60FFF7F0FB05464FF0007393FA25
:100CC800A3F3274B19684FF0007393FAA3F3B3FA11
:100CD80083F303F01F03012202FA03F3194206D03B
:100CE800FFF7DAFB401B0228E7D9032057E01C492D
:100CF8004B6823F47413626A206A024313434B60FF
:100D08004FF0807393FAA3F3B3FA83F303F1845398
:100D180003F584139B0001221A60FFF7BDFB04460C
:100D28004FF0007393FAA3F30D4B19684FF000735B
:100D380093FAA3F3B3FA83F303F01F03012202FA31
:100D480003F3194206D1FFF7A7FB001B0228E7D9D6
:100D5800032024E0002022E0002020E020819010E1
:100D68000010024000700040012B1AD0104B5B6845
:100D780003F48031226A914215D103F47013626A38
:100D8800934212D100200AE001207047012006E0BA
:100D9800012004E0032002E0032000E0002002B06C
:100DA80070BD0120FBE70120F9E70120F7E700BF4C
:100DB80000100240114B5A6802F00C03042B18D0A3
:100DC800082B18D1C2F383430D49C85C0B4BDB6A6F
:100DD80003F00F030B49C95C12F4803F05D00A4B9E
:100DE800B3FBF1F303FB00F07047084B03FB00F083
:100DF8007047054870470648704700BF001002401A
:100E0800C0190008D01900080024F40000093D00AA
:100E180000127A00002800F0BE8070B50D46044626
:100E2800614B1B6803F007038B420BD25E4A1368C1
:100E380023F007030B431360136803F007038B4287
:100E480040F0AB80236813F0020F06D0574A53686E
:100E580023F0F003A1680B435360236813F0010FDC
:100E68005AD06368012B2DD0022B40D0022292FA6F
:100E7800A2F24E4A1068022292FAA2F2B2FA82F262
:100E880002F01F02012101FA02F2104200F08780ED
:100E980046494A6822F0030213434B60FFF7FCFA05
:100EA8000646424B5B6803F00C036268B3EB820FA3
:100EB80032D0FFF7F1FA801B41F288339842F0D91B
:100EC800032067E04FF4003292FAA2F2374A106822
:100ED8004FF4003292FAA2F2B2FA82F202F01F0242
:100EE800012101FA02F20242D2D1012052E04FF070
:100EF800007292FAA2F22D4A10684FF0007292FA2C
:100F0800A2F2B2FA82F202F01F02012101FA02F201
:100F18001042BDD101203DE0234B1B6803F00703BD
:100F2800AB420AD9204A136823F007032B43136006
:100F3800136803F00703AB4233D1236813F0040F9F
:100F480006D01A4A536823F4E063E1680B43536000
:100F5800236813F0080F07D0144A536823F460532A
:100F6800216943EAC1035360FFF724FF0F4B5B6815
:100F780003F0F003F02292FAA2F2B2FA82F2D3401E
:100F88000B4AD35CD8400B4B18600B4B1868FFF723
:100F98003FFA002070BD012070470120FAE70120C8
:100FA800F8E70120F6E700BF0020024000100240E9
:100FB800E01900080800002004000020014B186810
:100FC800704700BF0800002008B5FFF7F7FF074B80
:100FD8005B6803F4E0634FF4E06292FAA2F2B2FABB
:100FE80082F2D340024AD35CD84008BD00100240C8
:100FF800F019000808B5FFF7E1FF074B5B6803F439
:1010080060534FF4605292FAA2F2B2FA82F2D340DD
:10101800024AD35CD84008BD00100240F01900080D
:10102800F0B583B00446036813F4803F48D0914B71
:10103800DB6913F0805F40F0D4808E4BDA6942F0B0
:101048008052DA61DB6903F080530193019B01252B
:10105800894B1B6813F4807F00F0C580854B1B6AA1
:1010680013F4407322D0626802F440729A421DD091
:101078008048016A21F440764FF4803393FAA3F252
:10108800B2FA82F27D4F3A4492004FF0010CC2F856
:1010980000C093FAA3F3B3FA83F33B449B00002206
:1010A8001A60066211F0010F40F0B280714A136AAB
:1010B80023F4407361680B431362002D40F0CF8026
:1010C800236813F0010F06D06A4A136B23F0030359
:1010D800A1680B431363236813F0020F06D0654A17
:1010E800136B23F44033E1680B431363236813F055
:1010F800040F06D05F4A136B23F4402321690B4386
:101108001363236813F0200F06D05A4A136B23F099
:101118001003E1690B431363236813F4003F06D0FF
:10112800544A536823F48003A16B0B43536023682C
:1011380013F0400F06D04F4A136B23F02003216AA7
:101148000B431363236813F0080F06D0494A136B47
:1011580023F4401361690B431363236813F0100FE2
:1011680006D0444A136B23F44003A1690B4313636D
:10117800236813F4007F06D03E4A536823F4000323
:10118800E16A0B435360236813F0800F06D0394A95
:10119800D36A23F4F873616A0B43D362236813F4A8
:1011A800807F06D0334AD36A23F47853A16A0B436D
:1011B800D362236813F4805F06D02E4A136B23F49E
:1011C8008073216B0B431363236813F4005F4DD0C6
:1011D800284A136B23F40073616B0B4313630020DD
:1011E80045E0002534E7244A136843F4807313600C
:1011F800FFF752F90646204B1B6813F4807F7FF4F3
:101208002DAFFFF749F9801B6428F4D903202EE09D
:10121800FFF742F9064615E0164B196A022393FABE
:10122800A3F3B3FA83F303F01F03012202FA03F3D3
:101238000B427FF43BAFFFF72FF9801B41F2883355
:10124800984211D8022393FAA3F293FAA3F3002B3E
:10125800E2D1022393FAA3F3064B596ADEE7D36976
:1012680023F08053D3612BE7032000E0002003B074
:10127800F0BD00BF001002400070004000819010D7
:10128800026852E8003F23F4907342E800310029D5
:10129800F6D1026802F1080353E8003F23F0010386
:1012A800083242E800310029F3D1036E012B06D041
:1012B8002023C0F8803000230366836670470268E5
:1012C80052E8003F23F0100342E800310029F6D12C
:1012D800EEE7000010B504468368026913434269CB
:1012E8001343C2691A4301680B6823F4164323F0B9
:1012F8000C0313430B600268536823F44053C1681E
:101308000B4353608269036A1A4301688B6823F4AC
:10131800306313438B6003687B4A93420DD07B4A4A
:1013280093421CD07A4A93423AD07A4A93424AD09E
:10133800794A93425AD010231FE0784B1B6B03F075
:101348000303032B09D8DFE803F002040664012332
:1013580013E0042311E008230FE010230DE06F4B86
:101368001B6B03F44033B3F5003F54D013D8002B64
:1013780053D0B3F5803F52D10423E069B0F5004F54
:1013880069D0082B00F2B980DFE803F092A890B783
:10139800ABB7B7B7AE00B3F5403F42D10223ECE795
:1013A8005E4B1B6B03F44023B3F5002F3BD005D8ED
:1013B800DBB3B3F5802F3AD10423DEE7B3F5402F32
:1013C80037D10223D9E7554B1B6B03F44013B3F510
:1013D800001F30D005D883B3B3F5801F2FD1042365
:1013E800CBE7B3F5401F2CD10223C6E74B4B1B6B51
:1013F80003F44003B3F5000F25D005D82BB3B3F59C
:10140800800F24D10423B8E7B3F5400F21D102237C
:10141800B3E70223B1E70823AFE70023ADE71023C2
:10142800ABE71023A9E70823A7E70023A5E71023C4
:10143800A3E71023A1E708239FE700239DE71023D4
:101448009BE7102399E7082397E7002395E71023E4
:1014580093E7102391E7082B49D8DFE803F0051F2D
:101468002548224848480900FFF7AEFD002840D02B
:101478006268530803EB4000B0FBF2F0A0F11002E1
:101488004FF6EF739A4236D883B223F00F03C0F3B6
:10149800420018432368D86000201BE0FFF7AAFD2C
:1014A800E4E7FFF787FCE1E71D48E1E71C4802E0B5
:1014B800FFF78AFD18B3636800EB5300B0FBF3F045
:1014C800A0F110024FF6EF739A421AD8236880B23F
:1014D800D86000200023A366E36610BDFFF78AFDED
:1014E800E8E7FFF767FCE5E74FF40040E3E7012092
:1014F800F0E70020EEE70120ECE70120EAE7002012
:10150800E8E70120E6E700BF00380140004400405A
:1015180000480040004C00400050004000100240CD
:1015280000127A00436A13F0080F06D00268536865
:1015380023F40043416B0B435360436A13F0010FDC
:1015480006D00268536823F40033816A0B43536062
:10155800436A13F0020F06D00268536823F48033FD
:10156800C16A0B435360436A13F0040F06D0026844
:10157800536823F48023016B0B435360436A13F0D1
:10158800100F06D00268936823F48053816B0B43D5
:101598009360436A13F0200F06D00268936823F41F
:1015A8000053C16B0B439360436A13F0400F0AD09A
:1015B8000268536823F48013016C0B435360036C77
:1015C800B3F5801F0BD0436A13F0800F06D0026872
:1015D800536823F40023816C0B43536070470268FF
:1015E800536823F4C003416C0B435360EBE72DE9C8
:1015F800F84305460E4617469946DDF820802C68C4
:10160800E46936EA04030CBF4FF0010C4FF0000CFC
:10161800BC4536D1B8F1FF3FF1D0FEF73DFFA0EB56
:101628000900404530D8B8F1000F2FD02B681A6850
:1016380012F0040FE3D0802EE1D0402EDFD0DA691B
:1016480012F0080F11D1DA6912F4006FD7D04FF4F5
:1016580000621A622846FFF713FE2023C5F884307B
:10166800002385F8783003200CE008241C62284603
:10167800FFF706FEC5F88440002385F8783001207E
:1016880000E00020BDE8F8830320FBE70320F9E72A
:101698002DE9F04182B01E46C36F202B56D1044677
:1016A8000D469046002955D00AB901204FE0002385
:1016B800C0F884302123C367FEF7EEFE0746A4F87E
:1016C8005080A4F85280A368B3F5805F02D04FF031
:1016D800000818E0236913B14FF0000813E0A8468A
:1016E800002510E02023E367032030E038F8023BB0
:1016F8002268C3F308031385B4F8522092B2013A62
:1017080092B2A4F85220B4F852309BB27BB1009642
:101718003B46002280212046FFF769FF0028E1D1DF
:10172800002DE3D0236815F8012B1A85E4E700960D
:101738003B46002240212046FFF759FF10B92023DD
:10174800E36704E02023E367032000E0022002B0FF
:10175800BDE8F0810120FAE730B583B004460023E4
:10176800C0F88430FEF798FE05462268126812F029
:10177800080F0FD123681B6813F0040F26D120230C
:10178800E367C4F8803000202066606684F878003B
:1017980003B030BD6FF07E430093034600224FF440
:1017A80000112046FFF723FF0028E3D0226852E803
:1017B800003F23F0800342E800310029F6D12023BE
:1017C800E367002384F878300320E1E76FF07E4375
:1017D80000932B4600224FF480012046FFF707FFB5
:1017E8000028CCD0226852E8003F23F4907342E8E6
:1017F80000310029F6D1226802F1080353E8003FBE
:1018080023F00103083242E800310029F3D12023F4
:10181800C4F88030002384F878300320B8E768B330
:1018280010B50446C36F03B32423E3672268136823
:1018380023F001031360636AE3B92046FFF74AFD0A
:10184800012811D02268536823F49043536022681A
:10185800936823F02A0393602268136843F0010316
:1018680013602046FFF778FF10BD80F8783000F04D
:1018780039F8D9E72046FFF755FEDEE70120704723
:10188800FEE7FEE7FEE7FEE7FEE7704770477047B2
:1018980008B5FEF7F5FD08BD034AD2F8883043F4D1
:1018A8007003C2F88830704700ED00E008B50B48B7
:1018B8000B4B03604FF4E133436000238360C36044
:1018C80003610C2242618361C36103624362FFF7D3
:1018D800A6FF00B908BDFEF73DFDFBE72C00002080
:1018E8000038014000B589B00023039304930593A1
:1018F800069307930268144B9A4202D009B05DF828
:1019080004FB03F558439A6942F480429A619A6944
:1019180002F480420192019A5A6942F400325A61F3
:101928005B6903F400330293029B4FF4C063039393
:1019380002230493032306930723079303A94FF075
:101948009040FEF721FED9E700380140DFF834D097
:10195800FFF7A2FF0C480D490D4A002302E0D458B6
:10196800C4500433C4188C42F9D30A4A0A4C0023E1
:1019780001E013600432A242FBD3FEF745FCFEF7F8
:101988002FFDFEE700800020000000200C00002052
:10199800001A00080C000020B4000020FEE7000038
:1019A800F8B500BFF8BC08BC9E467047F8B500BF44
:0819B800F8BC08BC9E46704714
:1019C00002030405060708090A0B0C0D0E0F101080
:1019D0000102030405060708090A0B0C0D0E0F107F
:1019E00000000000000000000102030406070809CF
:0819F0000000000001020304E5
:0419F800F1010008F1
:0419FC00C901000815
:0C1A0000010000001000000000127A003D
:040000050800195581
:00000001FF
